:020000040800F2
:10000000D0140020A18500081D0200081F0200086E
:1000100023020008270200082B020008000000004D
:100020000000000000000000000000002F02000897
:100030003102000800000000330200083502000809
:10004000BB850008BB850008BB850008BB85000890
:10005000BB850008BB850008BB850008BB85000880
:10006000BB850008BB850008BB850008BB85000870
:10007000BB850008BB850008BB850008BB85000860
:10008000BB850008BB850008BB850008BB85000850
:10009000BB850008BB850008BB8500085727000802
:1000A000BB850008BB850008BB850008BB85000830
:1000B000BB8500085D2C0008352F0008BB850008B3
:1000C000BB850008BB850008BB850008BB85000810
:1000D000BB85000887070008BB850008BB850008B2
:1000E0002F1D0008BB850008BB85000800F002F842
:1000F00000F03CF80AA090E8000C82448344AAF186
:100100000107DA4501D100F031F8AFF2090EBAE883
:100110000F0013F0010F18BFFB1A43F0010318473B
:1001200058AB000078AB0000103A24BF78C878C103
:10013000FAD8520724BF30C830C144BF04680C60ED
:10014000704700000023002400250026103A28BF35
:1001500078C1FBD8520728BF30C148BF0B60704739
:100160001FB50AF0CEFA1FBD10B510BD08F09AFAFF
:100170001146FFF7F5FF00F00FF808F0B8FA03B4E6
:10018000FFF7F2FF03BC08F0BFFA000030BF72B601
:1001900062B680F308887047012006F054F806F034
:1001A000CBF800F0B5FA02F060FA02F081FF02F03D
:1001B00089FA2021164808F035FA01201449087000
:1001C00000BF002080F3108800BF00BF00F05DFB7F
:1001D00003F08AFC01F087FC00F04DFA01F02DFDE0
:1001E00001F026FC04F002FF02F013FF05F07AF99B
:1001F00003F089FC0020064908700649087006498A
:10020000087003498870C87005F03FFBDEE7000006
:10021000480000201A0000201B000020704700BF8B
:10022000FEE700BFFEE700BFFEE700BFFEE7704746
:10023000704770477047000000210020674A12682D
:1002400042F48032654B1A6000BF644A126802F4BF
:100250000030491C10B9B1F5A06FF6D15F4A1268A1
:1002600012F4003F01D0012000E00020012842D11B
:100270005B4A126842F01002594B1A601A46126823
:1002800022F003021A601A46126842F002021A6053
:10029000524A5268514B5A601A4652685A601A467E
:1002A000526842F480625A601A46526822F47C1204
:1002B0005A601A46526842F4E8125A601A461268A6
:1002C00042F080721A6000BF444A126812F0007F48
:1002D000FAD0424A526822F00302404B5A601A4652
:1002E000526842F002025A6000BF3C4A526802F073
:1002F0000C02082AF9D1704710B5FFF79DFF10BD19
:1003000010B53648006840F00100344908600846DE
:10031000406834490840314948600846006832491D
:1003200008402E4908600846006820F480200860D4
:100330000846406820F4FE0048604FF41F008860C3
:10034000FFF7DAFF4FF000602849086010BD10B5D4
:10035000002100200022214B5B6803F00C0121B139
:10036000042906D0082928D107E0214B214C23601D
:1003700027E01F4B1F4C236023E0184B5B6803F4FE
:100380007010164B5B6803F48032022303EB90403D
:1003900022B9194B4343174C23600DE00F4B5B68A8
:1003A00013F4003F04D0144B4343124C236003E08A
:1003B0000F4B43430F4C236003E00D4B0D4C236068
:1003C00000BF00BF054B5B68C3F303130B4CE15C3C
:1003D000084B1B68CB40074C236010BD0010024047
:1003E000002002400000FFF8FFFFF6FE08ED00E0ED
:1003F00000127A000000002000093D0004000020E7
:1004000070B50446012000F05FF8204606F059FA66
:100410000546002000F058F8284670BD70B5044627
:100420000D46012000F050F82946204606F067FAF4
:10043000002000F049F870BD2DE9F04107460C4658
:100440001646002511E0680001D1E81101D0012015
:1004500000E00020C5B220782844C5B214F8011B82
:1004600038467F1CFFF7DAFF761E002EEBD12946B7
:100470003846FFF7D3FFBDE8F0812DE9F04106468D
:100480000F469046002512E038467F1CFFF7B8FF64
:100490000446680001D1E81101D0012000E00020ED
:1004A000C5B22819C5B206F8014BA8F10108B8F188
:1004B000000FE9D13846FFF7A3FFA84202D101207F
:1004C000BDE8F0810020FBE780F310887047000052
:1004D0002DE9F04F87B080468946924699F8000092
:1004E00000EB08040020059000258346049014F8D2
:1004F000016B06902D2E04D10120069014F8016B9B
:1005000003E02B2E01D114F8016B0020059000258B
:100510008346049025E0A6F13000C6B2092E16DC11
:100520000BF1010000F0FF0BBBF1080F0ADC04988F
:1005300008B1681E45B2059800EB800006EB40004C
:1005400005900CE0049850B9681C45B207E0FE2EF7
:1005500004D1049810B90120049000E002E014F8DE
:10056000016BD8E700BFBBF1000F03D1002007B03B
:10057000BDE8F08F059809F0B5FF07460021384621
:1005800009F028FF39D00FE0384609F0C7FD314A9D
:10059000314BCDE9000109F0B1FACDE9020108F0D3
:1005A00069FF0746A81C45B215F1020FECDD002DCE
:1005B0000EDA384609F0B2FD284A294BCDE9000190
:1005C00009F09CFACDE9020108F054FF074614E057
:1005D000002D12DD00BF384609F0A0FD0022214B9E
:1005E000CDE9000109F08AFACDE9020108F042FFE5
:1005F0000746681E40B2051EEDDC069820B187F064
:100600000040CAF8000001E0CAF80070A4EB08003E
:10061000401E89F800000120A9E72DE9F84F804627
:1006200089464946484609F0A5FF8346414640466B
:1006300009F0A0FF5946009009F09CFD824609F0A0
:100640006DFD044608F0F0FE064608F013FFBDE815
:10065000F88F00007B14AE47E17A843F9A9999990C
:100660009999B93F0000244010B500220821144890
:1006700005F0EEFE10BD10B508221149104605F038
:10068000BDFEFFF7F1FF10BD10B50446022C05D1E9
:10069000012208210A4805F0DBFE01E0FFF7E4FF34
:1006A00010BD10B5044607484078022800D110BD9F
:1006B00005F05EF92046FFF7E7FF00BFF7E700000F
:1006C000000C01404800002074480178744800780C
:1006D000884204DB72480078401AC0B27047704804
:1006E0000078081AC0F18000C0B2F7E76D480178C1
:1006F0006D480078884204DB6B480078401AC0B22D
:10070000704769480078081AC0F14000C0B2F7E7A6
:1007100010B54FF4E13005F0B3FE10BD70B50546DD
:1007200061480078401CC4B2402C00D1002405E090
:100730005E48007810F0100F00D070BD5948007866
:100740008442F5D05A4858490978455456480470AF
:10075000012240F22771574807F0F7FD00BFECE790
:100760004E4801784E480078884201D1FF207047FA
:10077000514A505C4A1CD1B2802900D10021474A1D
:10078000117000BFF3E770B540F22551494807F0FA
:10079000AEFEB8B3474807F040FEC6B23F2E0AD0BF
:1007A00004DC182E3CD0212E3DD11EE0402E2AD054
:1007B0007E2E38D10CE0012000F06CF83B48007828
:1007C00040F0010039490870002000F063F83CE077
:1007D000012000F05FF83548007840F0020033490E
:1007E0000870002000F056F82FE0012000F052F8C9
:1007F0002E48007840F008002C490870002000F0D6
:1008000049F822E022E0012000F044F8274800786F
:1008100040F0200025490870002000F03BF814E06B
:1008200005F0B5FB11E01E480078401CC5B2802DD4
:1008300000D1002519480078854205D01E48184986
:10084000097846541648057000BF00BF40F2277172
:10085000184807F062FEB8B1124804781448015DE8
:10086000144807F0D6FD601CC4B2402C00D100240F
:100870000C4804700C480078844205D1002240F2F4
:1008800027710C4807F061FD70BD054800780349E9
:100890000870704780F31088704700001500002032
:1008A0001400002017000020160000201A0000206D
:1008B000E8000020003801406800002010B5044620
:1008C00003E014F8010BFFF729FF20780028F8D186
:1008D00010BD10B504462046FFF7F0FF10BDFEB571
:1008E00005460E46174600240BE095FBF6F006FB86
:1008F0001050C0B20DF8040095FBF6F0C5B2601CB4
:10090000C4B2BC42F1DB08E0611E1DF801103031B9
:10091000C8B2FFF703FF601EC4B2002CF4DCFEBDBA
:1009200010B50446082202212046FFF7D8FF10BD6B
:1009300070B505460A2D01DA012404E0642D01DAC0
:10094000022400E0032422460A212846FFF7C7FFBD
:1009500070BD3EB5044600251CB93020FFF7DEFE11
:100960003EBD0DE00A20B4FBF0F100FB1140C2B225
:100970002846691CCDB20DF800200A20B4FBF0F423
:10098000002CEFD108E0691E1DF801103031C8B20B
:10099000FFF7C4FE681EC5B2002DF4DC00BFDFE720
:1009A00010B50446002C06DA2D20FFF7B7FE604292
:1009B000FFF7CFFF02E02046FFF7CBFF10BD2DE988
:1009C000F04786B082460F46B8460026504609F0EA
:1009D00035FD81460021504609F098FD04D22D20B6
:1009E000FFF79CFE8AF0004AB84608E0524950469C
:1009F00009F0C0FD8246A8F1020000F0FF08B8F13E
:100A0000020FF3DAB8F1000F04D04C49504609F058
:100A1000B1FD8246504609F081FB04460022484B56
:100A200008F05AFDCDE9000108F024FD82460026B9
:100A3000504609F003FD81462E2002A9C85512E058
:100A4000BE4201D1701CC6B20A20B9FBF0F100FB16
:100A500011903030C2B23046711CCEB202A90A5495
:100A60000A20B9FBF0F9B9F1000FE9D105E0302215
:100A70003046711CCEB202A90A54BE42F7DBBE4218
:100A800007D1701CC6B230223046711CCEB202A90A
:100A90000A5406E0711E02AA505CFFF73FFE701E6A
:100AA000C6B2002EF6DC06B0BDE8F0872DE9F047AF
:100AB0008046244890F8400010F0010F0FD04046C7
:100AC00009F02CFB0446204A204B09F017F8064693
:100AD00008F0D0FC81460421FFF771FF03E00321F9
:100AE0004046FFF76CFFBDE8F0872DE9F0478046F0
:100AF000144890F8400010F0010F0FD0404609F064
:100B00000DFB0446104A114B08F0F8FF064608F0AA
:100B1000B1FC81460121FFF752FF03E0002140466E
:100B2000FFF74DFFBDE8F08710B5044603212046CE
:100B3000FFF745FF10BD00000000C8420000204143
:100B40000000E03F280100206568E1575128A43FDC
:100B500010B504461CB9B1A0FFF7BBFE55E0B1A02B
:100B6000FFF7B7FE172C45D2DFE804F0440C101451
:100B7000181C2024282C3034444444444444444425
:100B80003C384000A9A0FFF7A4FE3AE0ADA0FFF773
:100B9000A0FE36E0B0A0FFF79CFE32E0B3A0FFF766
:100BA00098FE2EE0B4A0FFF794FE2AE0B7A0FFF76E
:100BB00090FE26E0B9A0FFF78CFE22E0C0A0FFF770
:100BC00088FE1EE0C1A0FFF784FE1AE0C2A0FFF776
:100BD00080FE16E0C5A0FFF77CFE12E0C7A0FFF77D
:100BE00078FE0EE0CBA0FFF774FE0AE0CEA0FFF780
:100BF00070FE06E0D1A0FFF76CFE2046FFF798FEDE
:100C000000BF00BFD2A0FFF764FE10BD10B50446C0
:100C1000D0A0FFF75EFE062C18D2DFE804F0170321
:100C2000070B0F13CDA0FFF754FE0FE0CEA0FFF788
:100C300050FE0BE0CFA0FFF74CFE07E0D2A0FFF77D
:100C400048FE03E0D3A0FFF744FE00BF00BFC0A0F2
:100C5000FFF73FFE4FF4FA7005F0A5FB10BD10B58D
:100C60000446CFA0FFF735FE092C26D2DFE804F0BA
:100C70002505090D1115191D2100CAA0FFF729FE30
:100C80001BE0CDA0FFF725FE17E0D0A0FFF721FE67
:100C900013E0D3A0FFF71DFE0FE0D3A0FFF719FE6E
:100CA0000BE0D4A0FFF715FE07E0D5A0FFF711FE7B
:100CB00003E0D5A0FFF70DFE00BF00BFD7A0FFF7F0
:100CC00008FE10BD10B5D6A0FFF703FE10BD10B58D
:100CD000DB48FFF7FEFD10BD2DE9F0416426D9A0E9
:100CE000FFF7F7FDD84991F83000FFF721FED7A0B4
:100CF000FFF7EFFDD44991F83300FFF719FEDAA0B2
:100D0000FFF7E7FDD04991F83100FFF711FEDEA0B3
:100D1000FFF7DFFDCC4991F83100FFF701FEE1A0BC
:100D2000FFF7D7FDC84991F83200FFF701FEDFA0B9
:100D3000FFF7CFFDC44991F83200FFF7F1FDE1A0C4
:100D4000FFF7C7FDC04991F84010C1F38000FFF7DD
:100D5000EFFDDEA0FFF7BDFDBB4991F84010C1F3E8
:100D60008010FFF7E5FDE2A0FFF7B3FDB64991F86B
:100D70004010C809FFF7DCFDE5A0FFF7AAFDB24966
:100D800091F83400FFF7D4FDE9A0FFF7A2FDAE49CA
:100D900091F83400FFF7C4FDEBA0FFF79AFDAA49D4
:100DA000886BFFF7C1FEEAA0FFF793FDA649C86B69
:100DB000FFF7BAFEEEA0FFF78CFDA34991F84010B3
:100DC00001F00100FFF7B4FDF0A0FFF782FD9E499E
:100DD00091F84010C1F34010FFF7AAFDF3A0FFF710
:100DE00078FD994991F84010C1F3C000FFF7A0FDCC
:100DF000F5A0FFF76EFD944991F84010C1F3001083
:100E0000FFF796FDF7A0FFF764FD8F4991F84100C9
:100E1000FFF78EFDFAA0FFF75CFDFFE16F6B0D0A97
:100E2000000000006572726F723A200045787065AC
:100E30006374656420636F6D6D616E64206C6574AE
:100E400074657200426164206E756D626572206621
:100E50006F726D6174000000496E76616C69642088
:100E600073746174656D656E7400000056616C7515
:100E700065203C203000000053657474696E672063
:100E800064697361626C65640000000056616C7592
:100E900065203C2033207573656300004545505242
:100EA0004F4D2072656164206661696C2E20557318
:100EB000696E672064656661756C7473000000007C
:100EC0004E6F742069646C6500000000416C6172B3
:100ED0006D206C6F636B0000486F6D696E67206EEC
:100EE0006F7420656E61626C656400004C696E65AC
:100EF000206F766572666C6F770000004D6F6461DD
:100F00006C2067726F75702076696F6C6174696FA1
:100F10006E000000556E737570706F72746564209A
:100F2000636F6D6D616E6400556E646566696E65B4
:100F3000642066656564207261746500496E76613F
:100F40006C69642067636F64652049443A0000005F
:100F50000D0A0000414C41524D3A20004861726434
:100F6000206C696D69740000536F6674206C696D44
:100F70006974000041626F727420647572696E67F3
:100F8000206379636C65000050726F626520666152
:100F9000696C0000486F6D696E67206661696C005E
:100FA0005B000000526573657420746F20636F6E80
:100FB00074696E7565000000272448277C27245833
:100FC0002720746F20756E6C6F636B0043617574BE
:100FD000696F6E3A20556E6C6F636B65640000003C
:100FE000456E61626C65640044697361626C65643E
:100FF00000000000436865636B20446F6F7200005F
:1010000050676D20456E6400526573746F72696E2F
:10101000672064656661756C747300005D0D0A007D
:101020000D0A4772626C20302E396A205B27242714
:1010300020666F722068656C705D0D0A000000000C
:1010400070A9000824303D00280100202028737476
:1010500065702070756C73652C2075736563290D40
:101060000A24313D00000000202873746570206957
:10107000646C652064656C61792C206D73656329EF
:101080000D0A24323D000000202873746570207022
:101090006F727420696E76657274206D61736B3A3D
:1010A00000000000290D0A24333D00002028646957
:1010B0007220706F727420696E76657274206D6133
:1010C000736B3A00290D0A24343D00002028737404
:1010D000657020656E61626C6520696E76657274FC
:1010E0002C20626F6F6C290D0A24353D0000000032
:1010F00020286C696D69742070696E7320696E7642
:101100006572742C20626F6F6C290D0A24363D00C5
:10111000202870726F62652070696E20696E766536
:1011200072742C20626F6F6C290D0A2431303D00DF
:101130002028737461747573207265706F727420E7
:101140006D61736B3A000000290D0A2431313D00B6
:1011500020286A756E6374696F6E206465766961B4
:1011600074696F6E2C206D6D290D0A2431323D009B
:10117000202861726320746F6C6572616E63652CE8
:10118000206D6D290D0A2431333D00002028726541
:10119000706F727420696E636865732C20626F6F64
:1011A0006C290D0A2432303D000000002028736FA6
:1011B0006674206C696D6974732C20626F6F6C2982
:1011C0000D0A2432313D0000202868617264206CD1
:1011D000696D6974732C20626F6F6C290D0A24325B
:1011E000323D00002028686F6D696E672063796367
:1011F0006C652C20626F6F6C290D0A2432333D0020
:101200002028686F6D696E672064697220696E7648
:10121000657274206D61736B3A000000F24991F8B9
:101220004100FFF77DFBF1A0FFF753FBEE49486C4F
:10123000FFF77AFCEFA0FFF74CFBEB49886CFFF758
:1012400073FCF4A0FFF745FBE749B1F84C10C8B2B6
:10125000FFF76EFBF7A0FFF73CFBE349086DFFF7D4
:1012600063FCFCA0FFF735FB00BF002572E0002403
:1012700069E0FFA0FFF72DFB3119C8B2FFF758FB5B
:10128000AFF20020FFF725FB35B1012D0AD0022D6A
:101290000FD0032D22D117E0D34951F82400FFF7D6
:1012A00043FC1BE0D0490C3151F82400FFF73CFC13
:1012B00014E0CD49183151F82400EE4908F0C8FF78
:1012C0000746FFF731FC09E0C748243050F82400F6
:1012D00080F000473846FFF727FC00BF00BFE6A0BC
:1012E000FFF7F7FA24B1012C06D0022C0CD107E04D
:1012F000E2A0FFF7EEFA07E0E1A0FFF7EAFA03E069
:10130000E0A0FFF7E6FA00BF00BF35B1012D08D01D
:10131000022D0AD0032D10D10BE0DBA0FFF7D9FA84
:101320000BE0DCA0FFF7D5FA07E0DFA0FFF7D1FA6A
:1013300003E0E2A0FFF7CDFA00BF00BFE3A0FFF794
:10134000C8FA601CC4B2032C93DB06F10A00C6B2D3
:10135000681CC5B2042D8ADBBDE8F0813EB5DCA077
:10136000FFF7B7FA002410E02146DB4801F0F9FB53
:101370004DF824005DF82400FFF798FB022C02DAF8
:10138000D6A0FFF7A6FA601CC4B2032CECDBD1A0F8
:10139000FFF79FFAD0491039087FFFF7C9FAAFF27B
:1013A0008430FFF796FA3EBD3EB5002538E0694629
:1013B000284600F0D6FF18B90720FFF7C9FB3EBD4D
:1013C000C7A0FFF786FA062D02D0072D08D103E04B
:1013D000C4A0FFF77EFA09E0C3A0FFF77AFA05E0A0
:1013E00005F13600C0B2FFF7A3FA00BF00BFB9A0F5
:1013F000FFF76FFA00240FE05DF82400FFF756FBBB
:10140000022C03DAB5A0FFF764FA03E0AFF2F43080
:10141000FFF75FFA601CC4B2032CEDDB681CC5B299
:10142000072DC4DDB1A0FFF754FA002410E0B14944
:1014300051F82400FFF73AFB022C03DAA7A0FFF7CC
:1014400048FA03E0AFF22C40FFF743FA601CC4B245
:10145000032CECDBA8A0FFF73CFAA6493439086C52
:10146000FFF724FBAFF24C40FFF733FAFFF776FFAC
:1014700000BFA4E710B5AFF2D840FFF72AFA9D48A5
:101480003438007809281AD2DFE800F005090D1178
:101490001919191915009AA0FFF71BFA1AE099A05B
:1014A000FFF717FA16E098A0FFF713FA12E097A0DB
:1014B000FFF70FFA0EE096A0FFF70BFA0AE095A0EF
:1014C000FFF707FA8B4934390978891EC8B2FFF74C
:1014D0002FFA00BF00BF91A0FFF7FBF9854934390F
:1014E00089793631C8B2FFF723FA82483438007957
:1014F00020B1012806D002280CD107E088A0FFF710
:10150000E8F907E088A0FFF7E4F903E088A0FFF717
:10151000E0F900BF00BF77483438807818B986A05A
:10152000FFF7D7F902E086A0FFF7D3F97148343806
:10153000C07818B984A0FFF7CCF902E084A0FFF7C7
:10154000C8F96C4834384078012803D182A0FFF7ED
:10155000C0F902E082A0FFF7BCF966483438C079D0
:1015600020B1012806D002280CD107E07EA0FFF7A9
:10157000B0F907E07DA0FFF7ACF903E07CA0FFF72E
:10158000A8F900BF00BF5B483438407A60B1012839
:1015900002D002280CD103E076A0FFF79AF907E009
:1015A00075A0FFF796F903E074A0FFF792F900BF6A
:1015B00000BF50483438007A10B1022808D103E047
:1015C0006FA0FFF786F903E06EA0FFF782F900BF76
:1015D00000BF6DA0FFF77DF946493439087DFFF75C
:1015E000A7F96AA0D4E0000028010020290D0A24F0
:1015F00032343D002028686F6D696E67206665652E
:10160000642C206D6D2F6D696E290D0A2432353DD5
:10161000000000002028686F6D696E6720736565A3
:101620006B2C206D6D2F6D696E290D0A2432363DAD
:10163000000000002028686F6D696E672064656295
:101640006F756E63652C206D736563290D0A2432F6
:10165000373D00002028686F6D696E672070756CDB
:101660006C2D6F66662C206D6D290D0A0000000040
:1016700024000000000061452028000078000000E0
:10168000790000007A0000002C20737465702F6DC3
:101690006D000000206D617820726174652C206DF2
:1016A0006D2F6D696E00000020616363656C2C20F6
:1016B0006D6D2F7365635E3200000000206D6178F0
:1016C0002074726176656C2C206D6D00290D0A0006
:1016D0005B5052423A000000580000202C000000ED
:1016E0005B47000032380000333000005B4739327E
:1016F0003A0000009C0200205B544C4F3A0000006E
:1017000047300000473100004732000047330000F7
:10171000473830004733382E0000000020470000D3
:10172000204731370000000020473138000000001A
:10173000204731390000000020473231000000000E
:101740002047323000000000204739300000000000
:1017500020473931000000002047393300000000E5
:101760002047393400000000204D3000204D31006A
:10177000204D3200204D3300204D3400204D3500E7
:10178000204D3900204D3800205400002046000034
:10179000FFF79FF882490869FFF7A7F981A0FFF7D3
:1017A00098F87F49C868FFF7A0F9AFF29070FFF78B
:1017B00090F810BD70B505460C467BA0FFF789F880
:1017C0002846FFF7B5F8AFF24470FFF782F82046DD
:1017D000FFF774F8AFF68800FFF77BF870BD10B51F
:1017E000044672A0FFF775F82046FFF767F8AFF2DE
:1017F000D470FFF76EF810BD10B504466FA0FFF768
:1018000068F82046FFF75AF8AFF2F070FFF761F87A
:1018100010BD30B587B06B4A121D07CA04AB07C3B1
:1018200068484078082814D007DC68B101281CD02B
:1018300002281ED0042824D113E010280DD020281F
:101840001BD040281DD103E05FA0FFF742F818E04D
:1018500000BF5FA0FFF73DF813E05FA0FFF739F886
:101860000FE05FA0FFF735F80BE05FA0FFF731F85E
:1018700007E05FA0FFF72DF803E05FA0FFF729F86E
:1018800000BF00BF5E4890F8340010F0030F03D093
:1018900004A901A801F078F9594890F8340010F033
:1018A000010F13D057A0FFF714F800240CE001A992
:1018B00051F82400FFF7FAF8022C03DAAFF2E41033
:1018C000FFF707F8601CC4B2032CF0DB4C4890F81B
:1018D000340010F0020F32D04CA0FEF7FAFF0024C3
:1018E0002BE02F4A343252F824100C3A52F82400DC
:1018F00008F040FC054601A850F82410284608F0DE
:101900003DFF01A941F82400022C09D1244A116CA1
:1019100001AA52F8240008F03BFF01A941F8240075
:1019200001A951F82400FFF7C1F8022C03DAAFF245
:101930005420FEF7CEFF601CC4B2032CD1DB30482C
:1019400090F8340010F0040F07D032A0FEF7C1FF6A
:1019500003F0D6FD0546FEF7EBFF294890F834006A
:1019600010F0080F07D02DA0FEF7B3FFFEF7ACFE76
:101970000546FEF7DDFF224890F8340010F0100F06
:1019800009D028A0FEF7A5FF00F09DF90546032227
:101990000221FEF7A4FF25A0FEF79BFF07B030BD94
:1019A0006802002020530000244E00005B302E39D6
:1019B0006A2E32303136303732363A005B65636832
:1019C0006F3A2000480000203C49646C650000002C
:1019D0003C52756E000000003C486F6C64000000D3
:1019E0003C486F6D650000003C416C61726D000009
:1019F0003C436865636B00003C446F6F72000000FD
:101A0000280100202C4D506F733A00002C57506F66
:101A1000733A00002C4275663A0000002C52583A86
:101A2000000000002C4C696D3A0000003E0D0A00D9
:101A300010B510222049042004F0F5FC01221021E9
:101A40001D4804F005FD10BD00211C4A11701C4901
:101A500091F8401011F0800F04D11146097881F0FF
:101A60000101117028B11549097881F00101134A6B
:101A70001170704710B510210F4804F0F8FC0F49A1
:101A80000978484010BD10B50E480078012811D1E2
:101A9000FFF7F0FF70B100200A4908700A480346BA
:101AA0001B1D0ECB10300EC00848007840F04000DF
:101AB0000649087010BD0000000801401800002011
:101AC0002801002019000020480000201A000020F2
:101AD00010B54FF0804004F0DFFF002202214B4898
:101AE00004F0B6FC10BD1CB5494B4FF08042CDE967
:101AF000002301231A464549042004F081FF0222F5
:101B00004249042004F07AFC04224049104604F0C3
:101B100075FCFFF7DDFF1CBD2DE9FF4706460F46AC
:101B200016B9FFF7D5FF5EE0012E05D10022042192
:101B3000364804F08DFC04E001220421334804F00F
:101B400087FC384608F0EAFA04460022134607F0FC
:101B500099FF02D8FFF7BCFF45E0384608F0DEFAEF
:101B600004460022134607F08DFF01D2002715E03E
:101B7000384608F0D3FA81460022134608F0E4F90B
:101B8000044607F077FC0746384608F0C7FA0446D3
:101B90000022204B08F0B0F800D21F4F384608F062
:101BA000BDFA1E4A1E4BCDE9000107F0A7FF04460F
:101BB00000221C4B07F090FC814607F06FFBCDE93B
:101BC000020107F007FF1FFA80F841464FF08040FE
:101BD00004F05AFF4FF0804004F065FF012202211B
:101BE0000A4804F035FCBDE8FF8770B504460D4691
:101BF0000D484078022800D170BD03F0B9FE294697
:101C00002046FFF789FF00BFF6E70000000801400B
:101C100000FF7F4700408F4000007A440AD7A3703E
:101C20003D6250400000E03F4800002010B5002217
:101C30001146282004F0D3FE10BD10B54FF4006209
:101C4000FF49042004F0EFFB4FF48052FC490420CC
:101C500004F0E9FB4FF40042F949042004F0E3FBEF
:101C60000122D102F64804F0F3FB01221103F448EB
:101C700004F0EEFB0122D103F14804F0E9FBF14846
:101C800090F8400010F0080F1AD00C234FF40062B7
:101C90000B21002004F076FE0C234FF480521946ED
:101CA000002004F06FFE0C234FF400420F210020AF
:101CB00004F068FE00221146282004F07FFE01E0B7
:101CC000FFF7B4FF10BD2DE9F04100264FF400618D
:101CD000DB4804F0CCFB47004FF48051D84804F0B7
:101CE000C6FB47EA80074FF40041D54804F0BFFB2C
:101CF00047EAC00000F00E05D24890F8400010F00E
:101D0000400F01D185F00E0575B100240AE0204690
:101D100000F0CCFC284203D00120A0403043C6B2E2
:101D2000601CC4B2032CF2DB3046BDE8F08110B574
:101D30004FF4184004F0C7FFC3484078012813D07F
:101D4000C248007880B9FFF7BEFF68B104F01FF900
:101D5000012000F032FABD48007840F00300BB4992
:101D60000870002000F029FA10BD2DE9F04F8FB067
:101D7000074603200D904FF00008B348007810B1DB
:101D80000FB0BDE8F08F002437E0204600F07AFC69
:101D90000CA908550120A04038422CD0A949243173
:101DA00051F8240008F0BAF90022A94BCDE900014E
:101DB00007F0A4FECDE90401404608F0AFF9CDE9F3
:101DC0000201DDE9042307F097FF03D2404608F043
:101DD000A5F90BE09B49243151F8240008F09EF945
:101DE00000229B4BCDE9040107F088FECDE90601F6
:101DF00007F040FB8046601CC4B2032CC5DB012504
:101E00009048D0F8489000BF8F49091D09A800F0FC
:101E1000BBFE0026B34600242DE00120A04038423E
:101E200027D00BF1010000F0FF0B00218648001DB8
:101E300040F82410834890F841100120A04001424E
:101E40000AD02DB188F0004009A941F824000DE026
:101E500009A840F8248009E01DB109A840F82480B1
:101E600004E088F0004009A941F824000CA8005DB6
:101E70000643601CC4B2032CCFDB584607F0EEFDCE
:101E8000CDE9000107F0D0FACDE90401484608F099
:101E900045F9CDE90201DDE9042307F02FFECDE984
:101EA000060107F0E7FA81466748467703F01AFB18
:101EB0000022494609A803F0FDF801F037F900F0C7
:101EC00077FE00BFB5B1FFF7FEFE824600240DE0AD
:101ED0000CA8005D304207D00120A04010EA0A0F94
:101EE00002D00CA8015D8E43601CC4B2032CEFDB52
:101EF0005548467701F01AF95648007810F0340F2B
:101F000021D05448007810F0300F0AD11DB9FFF7E6
:101F1000DAFE384205D14DB14E48007810F0040F7A
:101F200004D004F034F803F021FB29E7012000F08D
:101F300044F94848007820F0040046490870002021
:101F400000F03BF902E016F01C0FBBD100BF01F01E
:101F500060F803F04BF83B49B1F84C0004F023FA69
:101F600085F0010595B13749086D08F0D7F80022D2
:101F7000394BCDE9040107F0C1FDCDE9060107F0B9
:101F800079FA80462F48D0F8449004E02D48D0F8E4
:101F90005080D0F848900D98411EC9B20D9100288C
:101FA0003FF732AF0024B1E00120A04038427DD09D
:101FB000244890F841000121A14008425CD0214A08
:101FC000116D243252F8240008F0D4F806901D4810
:101FD00050F82410069808F0CDFA0021079008F078
:101FE0009CFB1BD2174A116D243252F8240008F0D2
:101FF000C1F80290134850F82410029808F0BAFA79
:10200000039008F08BF80022144BCDE9040107F08F
:1020100063FACDE9060107F0ADFC2BE0094A116D2A
:10202000243252F8240008F0A5F80290054850F830
:102030002410029808F09EFA039008F06FF80FE061
:102040000008014028010020480000201B0000205B
:102050000000F8BF1A000020000014400000E03F1C
:102060000022574BCDE9040107F06EFFCDE90601D0
:1020700007F080FC089043E05248006D80F000407B
:102080000690504850F82410069808F073FA002182
:10209000079008F042FB1AD24A48006D80F00040D9
:1020A0000290484850F82410029800E02CE008F014
:1020B00061FA039008F032F80022414BCDE90401A7
:1020C00007F00AFACDE9060107F054FC17E03D4895
:1020D000006D80F0004002903A4850F824100298B9
:1020E00008F048FA039008F019F80022344BCDE9C3
:1020F000040107F029FFCDE9060107F03BFC089039
:102100003149089841F82400601CC4B2032CFFF642
:102110004BAF03F0E7F900BF32E670B50546002487
:1021200047E055F82400002108F0F7FA08D3254AC3
:10213000243252F8241055F8240008F0E7F903D2AD
:1021400001202149091FC8701F48001FC07870B3C3
:102150001D48001F4078082818D1012000F02DF8F4
:102160001A48007840F0080018490870002000F074
:1021700024F800BF03F0FAF91348001F007800B1FB
:1021800070BD1148001F40780028F3D103F0FFFE16
:10219000012000F012F80E48007840F005000C49CC
:1021A0000870002000F009F803F0E0F9E8E7601C8F
:1021B000C4B2032CB5DB00BFE2E780F310887047A0
:1021C0000000E03F280100204C0000201A00002001
:1021D0001B00002070B504460D4604EB041000EB14
:1021E000841000F54076502229463046FEF724F947
:1021F00070BD10B504465022214640F2AE30FEF7C5
:102200001BF910BD70B504460D4604EB840000EBCD
:10221000C40000F500760C2229463046FEF70CF982
:1022200070BD10B509210020FEF7F8F85422F849D6
:102230000120FEF701F910BD3EB5044614F0010F70
:102240003CD00A20F24981F83000192081F833008F
:10225000002081F8310081F83200032081F8340039
:10226000EC488863EC48C863002081F84100EB48E3
:102270004864EB488864FA20A1F84C004FF07E5087
:102280000865002081F84000E648086048608860E2
:10229000E348C8600146DE4801614161E248DC492B
:1022A00088610146DA48C1610162E048D849486264
:1022B0000146D7488162C162FFF7B3FF14F0020FF5
:1022C0000ED00020009001900290002505E06946A4
:1022D0002846FFF797FF681CC5B2072DF7DD00BF42
:1022E00014F0040F09D000214FF44070FEF796F867
:1022F000002140F25130FEF791F814F0080F04D09D
:10230000002140F2AE30FEF789F83EBD70B50546BB
:102310000C4605EB051000EB851000F540765022C9
:1023200031462046FEF7A9F838B900202070214632
:102330002846FFF74FFF002070BD0120FCE710B5D5
:102340000446502240F2AE312046FEF796F830B9EE
:10235000002020702046FFF74CFF002010BD012018
:10236000FCE770B505460C4605EB850000EBC500A3
:1023700000F500760C2231462046FEF77EF848B97B
:10238000002020606060A06021462846FFF73AFFE9
:10239000002070BD0120FCE710B50020FEF730F8EA
:1023A0000446092C07D1542201219948FEF765F80B
:1023B00018B9002010BD0020FCE70120FAE72DE944
:1023C000F047074688464FF00009404607F0A6FE52
:1023D00004460022134607F055FB02D20420BDE854
:1023E000F087642F43DBA7F16400C7B23BE0032F03
:1023F0002BDAB9F1000F09D0B9F1010F0AD0B9F108
:10240000020F0CD0B9F1030F1DD115E0804840F840
:10241000278018E07E480C3040F8278013E084497C
:10242000404608F0A7F80446814908F0A3F8784927
:10243000183141F8270006E088F000417448243044
:1024400040F8271000BF00BF10E009F1010000F0C4
:10245000FF090A2F02DBB9F1040F01D10320BEE707
:10246000A7F10A00C7B2B9F1040FC0DBF9E040469A
:1024700008F000F8C6B21C2F76D2DFE807F00E167F
:102480001A2026394CEFEFEF5F63676BEFEFEFEF4A
:10249000EFEF7F9AAFDBDFE3E7EB032E01DA0620F5
:1024A0009DE75B4880F83060DAE0594880F8336097
:1024B000D6E0574880F8316000F061FDD0E0544824
:1024C00080F8326000F05BFDCAE046B1504890F8F9
:1024D000400040F004004E4981F8400007E04C48BD
:1024E00090F8400020F00400494981F84000B7E02E
:1024F00046B1474890F8400040F04000444981F818
:10250000400007E0424890F8400020F04000404979
:1025100081F84000A4E046B13D4890F8400040F00A
:1025200080003B4981F8400007E0394890F84000BE
:1025300020F08000364981F8400091E0344880F86E
:1025400034608DE03248C0F8388089E03048C0F807
:102550003C8085E04EB12E4890F8400040F00100EC
:102560002B4981F8400008E078E0294890F84000C5
:1025700020F00100264981F8400071E086B124482E
:1025800090F8400010F0100F01D10A2027E72048F2
:1025900090F8400040F020001D4981F8400007E01D
:1025A0001B4890F8400020F02000194981F84000B5
:1025B00056E046B1164890F8400040F00800144933
:1025C00081F8400007E0124890F8400020F0080031
:1025D0000F4981F84000FFF730FB41E046B10C485D
:1025E00090F8400040F01000094981F840000EE0EA
:1025F000074890F8400020F01000054981F840009D
:10260000084690F8400020F0200081F8400027E0C4
:10261000280100200AD7233C6F12033B0000C84169
:102620000000FA4300007A4300A00C47000048C3B2
:1026300000007042224880F8416011E02048C0F854
:1026400044800DE01E48C0F8488009E01C48A0F80E
:102650004C6005E01A48C0F8508001E00320BEE657
:1026600000BFFFF7DEFD0020B9E610B5FFF794FECE
:1026700038B90720FEF76CFAFF20FFF7DDFDFEF703
:102680002BFB10BD014609B904207047012901D177
:102690000820FAE71020F8E7014609B92020704722
:1026A000012901D14020FAE78020F8E7014609B965
:1026B00002207047012901D10420FAE70820F8E739
:1026C0002801002010B52022FA49042003F0ABFEB7
:1026D0004022F849042003F0A6FE8022F549042098
:1026E00003F0A1FE4FF48072F249042003F09BFE38
:1026F0000C2320220521002004F044F90C23402261
:102700000621002004F03EF90C238022072100203E
:1027100004F038F90C234FF480720821002004F0F3
:1027200031F901222021E34803F092FE01224021E9
:10273000E04803F08DFE01228021DE4803F088FE90
:1027400001221102DB4803F083FE0022114617200C
:1027500004F034F910BD70B52021D64803F087FE8F
:1027600005464021D34803F082FE45EA400580211A
:10277000D04803F07CFE45EA80054FF48071CD48D7
:1027800003F075FE45EAC00000F00F0484F00F046A
:10279000C4B114F0010F02D003F0F9FB12E014F001
:1027A000040F06D0C448007840F00200C249087007
:1027B00008E014F0020F05D0BF48007840F0080090
:1027C000BD4908704FF4F07004F07DFA70BD002030
:1027D000704770B50446002515E021462846FFF7EE
:1027E00095FD18B90720FEF7B3F90AE0207840B14B
:1027F0002046FEF763F8204601F0A0F90646FEF7F2
:10280000A7F9681CC5B2022DE7DB70BDFEB5044612
:102810000120029000259DF80800205C43280ED07E
:1028200003DC38B1242859D107E0472806D05828BE
:1028300054D105E0FEF74BFA90E100BF00BF00BFA6
:102840009DF80800401C205C08B10320FEBD9DF8E7
:102850000800205C242806D0432811D047280CD03B
:10286000582839D122E09548407810F0180F01D04F
:102870000820EBE7FEF730FA2EE0FEF7FBFD2BE039
:102880008E484078022805D103F081FB0520FEF731
:10289000E6F90AE08948407808B10820D6E7022026
:1028A000864948700420FEF7DAF915E0834840783D
:1028B000012810D10320FEF7D2F900207F4948708B
:1028C000FFF785FF38B17C48007840F020007A4956
:1028D000087002F04BFE00BF00BF3FE17748407830
:1028E00028B176484078012801D00820AEE79DF84D
:1028F0000800205C49283BD004DC232807D0482866
:1029000078D110E04E2876D0522873D15EE09DF841
:102910000800401CC0B20290205C08B1032095E77B
:10292000FEF742FD18E1664890F8400010F0100FE5
:102930001BD0042061494870FFF749FF38B15E4859
:10294000007840F020005C49087002F00FFE03F0B0
:102950008AFA5A48007850B900205849487000F067
:102960004EF92046FFF735FF01E005206EE7F3E062
:102970009DF80800401CC0B20290205C30B920468F
:10298000FFF7DDFC2046FEF72AFF1EE09DF8081049
:10299000481CC0B20290605C3D2801D0032055E77E
:1029A0009DF8085000BF9DF80800205C9DF80810B5
:1029B000491B60549DF80810481CC0B20290605C2E
:1029C0000028F0D12046FFF714FCC5E09DF8080070
:1029D000401CC0B20290205C532801D0032035E790
:1029E0009DF80800401CC0B20290205C542803D01F
:1029F00003202BE755E032E09DF80800401CC0B2F0
:102A00000290205C3D2801D003201FE79DF80800BC
:102A1000801C205C08B1032018E79DF80800401CCA
:102A2000C0B20290205C232808D0242802D02A2893
:102A30000CD107E00120FFF7FFFB09E00220FFF7C0
:102A4000FBFB05E0FF20FFF7F7FB01E00320FDE6BD
:102A500000BF0820FEF703F903F099FA7CE09DF827
:102A60000800401CC0B20290205C98B900250EE01E
:102A700021462846FFF74AFC18B90720FEF768F8F8
:102A800003E021462846FEF795FE681CC5B2022DDC
:102A9000EEDB61E00948407808B10820D6E6012560
:102AA00000BF01AA02A92046FDF712FD50B902207D
:102AB000CCE60000000801401A0000204800002079
:102AC000280100209DF80810481CC0B20290605CEC
:102AD0003D2801D00320B9E60DB39DF8085000BF92
:102AE0009DF80800205C9DF80810491B60549DF873
:102AF0000810481CC0B20290605C0028F0D120464B
:102B000001F01CF805460DB128469FE6019807F034
:102B1000B1FCC5B221462846FFF75CFB1BE06A46C4
:102B200002A92046FDF7D4FC08B902208EE69DF8E4
:102B30000800205C20B91C49019807F0EEFD01D285
:102B4000032083E6019807F095FCC6B23046009951
:102B5000FFF735FC7AE600BF00BF00BF00BF0020D2
:102B600074E62DE9F04105460C4655F8240007F0BF
:102B7000A1FC07460D4850F82410384607F068FBC2
:102B800006463046BDE8F08170B505460E46002485
:102B900007E021463046FFF7E4FF45F82400601CBB
:102BA000C4B2032CF5DB70BD00007F432801002078
:102BB00010B5FF4890F8400010F0040F05D0012236
:102BC000D102FC4803F044FC05E000224FF4006110
:102BD000F84803F03DFCF848407810F00C0F0DD099
:102BE000F6480078F649C873F64800788873F048CC
:102BF00090F83000801E487303F0FEFC10BD10B545
:102C000003F000FD0020F04908700024E84890F827
:102C10003300FF2802D1ED48007848B1E6484078FB
:102C2000042805D0E24991F8330003F0BCFB0124ED
:102C3000DF4890F8400010F0040F01D084F0010448
:102C40002CB10122D102DB4803F002FC05E0002296
:102C50004FF40061D74803F0FBFB10BD10B5012114
:102C6000DB4805F082FAE8B30121D94805F08EFA75
:102C7000D548007800B110BDD148C07BC0F34012E8
:102C80004FF48071CB4803F0E3FBCD48C07BC0F329
:102C900080124FF40071C74803F0DAFBC848C07BCC
:102CA000C2094FF48061C34803F0D2FBC448807B63
:102CB000C0F380022021BF4803F0CAFBC048807BDC
:102CC000C0F3C0024021BB4803F0C2FBBC48807B7C
:102CD000C0F300128021B74803F0BAFBB848417B2B
:102CE000472000E024E103F0ACFC03F09EFC01204F
:102CF000B549087000BF002080F3108800BFB048BD
:102D0000406AF0BBB3480078B3490978884250D094
:102D1000B248B149097800EBC100A94948620846A8
:102D2000406A80884110082003F072FCA448406A81
:102D30000088A34988830846807F496A8978884249
:102D400014D09F48406A80789D4988770846807FE4
:102D500000EB8000A24901EB800099490862084617
:102D6000006A006940088860486008609448006A0A
:102D700000789249097848409149C8730846006A2A
:102D800000E029E04068496A8979C8408C490861B7
:102D90000846006A8068496A8979C840884948615C
:102DA0000846006AC068496A8979C84084498861D0
:102DB00012E0FFF724FF00BF012080F3108800BF5E
:102DC0008848007840F004008649087000BF002061
:102DD00080F3108800BF4EE7FEF755FE00207849CB
:102DE0008873084600680969084475490860084600
:102DF0000068096A096988421DD97148807B40F0E2
:102E000004006F49887308460068096A0969401A16
:102E10006B4908600846006A007810F0200F05D062
:102E200065484068401E6449486004E06248406864
:102E3000401C6149486062484168406908446049F3
:102E4000486008464068096A096988421DD95C489B
:102E5000807B40F008005A49887308464068096A38
:102E60000969401A564948600846006A007810F01F
:102E7000400F05D050488068401E4F49886004E0EC
:102E80004D488068401C4C4988604D488168806985
:102E900008444B49886008468068096A0969884285
:102EA0001DD94748807B40F010004549887308468B
:102EB0008068096A0969401A414988600846006AC1
:102EC000007810F0800F05D03B48C068401E3A499A
:102ED000C86004E03848C068401C3749C8603648BC
:102EE0004078042806D13648807B3349497F084022
:102EF000334988733248808B401E314988830846A5
:102F0000808B58B90020486233480078401CC0B21A
:102F100031490870062801D1002008702848807BBC
:102F200028490978484026498873002026490870B6
:102F300000BFA0E610B501212B4805F016F9E8B155
:102F40000121294805F022F91E480078C0F38002CB
:102F50002021184803F07CFA1A480078C0F3C00218
:102F60004021144803F074FA16480078C0F30012A8
:102F70008021104803F06CFA03F05DFB10BD10B522
:102F80000020104908700D49087000243EE00848F0
:102F900090F831000121A140084207D02046FFF7F8
:102FA00071FB0849097808430649087000481DE08C
:102FB00028010020000C01404800002020000020D3
:102FC000100200201F000020210000201B00002014
:102FD000000400401D0000201C000020E001002033
:102FE0007C0100201A0000200008004090F8320008
:102FF0000121A140084207D02046FFF74DFBFF49C1
:1030000009780843FD490870601CC4B2032CBEDB7C
:1030100010BD10B5FFF7F3FD3021F94805F002FBB4
:103020002821F84805F0FEFA0020F6494862F649E2
:103030000860F6490870F64908700120F5490870E3
:103040000020F5490870FFF79AFFF4480078C0F3B4
:1030500080022021F24803F0FBF9F0480078C0F329
:10306000C0024021EE4803F0F3F9EC480078C0F3C9
:1030700000128021EA4803F0EBF9E0480078C0F341
:1030800040124FF48071E64803F0E2F9DB48007823
:10309000C0F380124FF40071E14803F0D9F9D7482A
:1030A0000078C2094FF48061DD4803F0D1F910BD0A
:1030B00010B52022DA49082003F0A0F94022D849AF
:1030C000082003F09BF98022D549082003F096F9E7
:1030D0004FF48072D249082003F090F94FF4007247
:1030E000CF49082003F08AF94FF48062CC490820C8
:1030F00003F084F94FF40062C949082003F07EF917
:1031000003F014FA10BD10B5BF48006868B1012083
:10311000BB4948700A46D169D06907F02BFABA4911
:10312000096848610020B849086010BD00B5A1B029
:1031300000201A90BB48407810F0700F0DD0B048B6
:10314000C0690D9006F0EAFF00221346CDE90E019A
:1031500006F0D4FB01D121B000BDFEE3AA4800680F
:10316000F0BB01F06CFFA84908600846006800B990
:10317000F1E7A348407818B10020A149487083E0E6
:103180009F480078401CC0B29D490870052801D1B5
:10319000002008709A48007800EB8000A24901EBFB
:1031A0008000A249086098480068007809680870A3
:1031B000954800684068C0009C490968486092488A
:1031C00000688068C1009948006881608E48006886
:1031D000C068C10095480068C1608B48006800E085
:1031E000B5E10069C0009149096808618648006836
:1031F00000690F9007F076F98149486082480068BD
:10320000806A0F90084640680E900F9907F020F8EA
:103210007B498860084680680B9006F07FFF024675
:103220000B46CDE90C010020814906F00FFACDE9EB
:103230000E0106F01FF97249C86000200861794844
:10324000407810F0700F0FD00846406AC8610846F9
:10325000406A0F900846406A0E900F9907F08AF96D
:103260006949096848610FE06748006840690B9048
:1032700006F054FFCDE90C0106F0D6F8CDE90E01B9
:1032800006F0F8F85E49C86100205D4988615E4833
:103290000068406A0B9006F041FF02460B46CDE9FC
:1032A0000C010020634906F0D1F9CDE90E0106F0CA
:1032B000E1F820905B48407810F0700F4DD002206C
:1032C0004F49087550480068406901460E902098A3
:1032D00007F050F90F904C480068806A01460E9044
:1032E0000F9807F04BFA1F901F9806F017FF002267
:1032F0001346CDE90E0106F0C5FB28D2424800680E
:10330000406A014608904FF0804007F033F9099079
:103310003D480068806A01460890099807F02AF93C
:103320000A90394800684069014609900A9807F0F8
:1033300025FA0B9006F0F2FECDE90C0106F074F8C8
:10334000CDE90E0106F096F82D494862FFE02C49C0
:103350001F98886100204862F9E00020284908751C
:1033600029480068806A886201F07BFE244948622F
:103370000846406A0F900846406A0E900F9907F081
:10338000F9F81E9020480068406908901E9907F0DF
:10339000FFF90990209907F0EDF80A901A480068A3
:1033A000806A014609900A9806F0E4FE0B9006F048
:1033B000B5FE00221F4BCDE90C0106F09FFBCDE9C5
:1033C0000E0106F057F81D901D9806F0A7FE00228A
:1033D0001346CDE90E0106F08FFC76D20A4800684C
:1033E000806A01460F901D9807F090F86ED206484B
:1033F0000068006A0E901E991EE000002000002068
:103400003802002010020020240000201C000020B0
:103410001D0000201E000020210000201F000020B1
:10342000000C0140480000207C0100202800002002
:103430000000F43F0000E03F07F0AAF90F90209948
:1034400007F098F8FE49C8620846C06A0F901D99B7
:1034500007F05CF83BD2FB480068006A0B9006F06E
:103460005DFECDE90C0105F0DFFFCDE90E0106F0B0
:1034700001F8F3490862F3480068006A0F90F148C8
:10348000006840690E900F9906F0A4FF03D1012057
:10349000EB4908755BE0EB48006840690D90E9482E
:1034A0000068006A0C900D9907F072F90E9020994F
:1034B00007F060F80F90E248806A01460E900F987E
:1034C00007F05CF9DE49886241E03AE032E0DC492D
:1034D0001D9888621D98C8621E9806F01FFECDE9EF
:1034E0000A011D9806F01AFECDE90601D5480068CC
:1034F000406A019006F012FE00224FF08043CDE9B1
:10350000020106F0FBFACDE90401DDE9062306F02D
:10351000F5FACDE90801DDE90A2305F0DDFFCDE983
:103520000C0105F081FFCDE90E0105F0A3FFC449B0
:1035300008620CE00220C24908750846C0690862AA
:1035400005E00020BE4988620846406A0862BE481D
:10355000BE49097800EBC1001C90B94801781C985D
:103560008170BB481B901B981990B6480068806A10
:103570001690B348C06801460F90169807F008F9F6
:103580001590159806F0CAFD00221346CDE90E01EC
:1035900006F078FA01D20020159000BFA848007DFF
:1035A00010B101287AD18BE0A6480068406A0F90DC
:1035B000199906F0DFFF1790179806F0AFFD00226B
:1035C000A44BCDE9000106F099FACDE904019C482D
:1035D000C069019006F0A2FDCDE90201DDE90423F6
:1035E00005F07AFFCDE90801199806F097FDCDE9BD
:1035F0000601DDE9082306F081FACDE90C011698F1
:1036000006F08CFDCDE90A01DDE90C2306F09CFCF7
:10361000CDE90E0105F02EFF16908948806A01461B
:103620000F90169806F072FF41D28548806A169076
:103630008348006A08908248C0690790089906F09C
:1036400099FD099006F06AFDCDE90C017D480068FE
:10365000806A0690169907F09BF8079006F05EFDC9
:1036600000224FF08043CDE9080106F047FACDE98A
:103670000A01DDE90C2305F0E9FFCDE90E0105F0B3
:10368000F9FE19906E48C06A01460F90169806F030
:10369000A1FE04D102206A49087503E03DE0012043
:1036A000674908756648006A6549C86107E064486B
:1036B000C0690F90179906F05DFD6149C861ADE0E2
:1036C0005F48006A0E90199906F054FF0F90169902
:1036D00007F054F818905A48C06A01460F9018989D
:1036E00006F014FF16D25648C06A01460E9016988E
:1036F00007F04EF80F905248006A01460E900F985E
:1037000006F0A6FD19904E48C06A169002214C485A
:10371000017501E01898169080E04A480068406AF8
:103720000F90199906F026FF17904548C0690F9031
:10373000179906F0F2FF43D2179806F0EFFC00222B
:10374000444BCDE9000106F0D9F9CDE904013C482C
:10375000C069019006F0E2FCCDE90201DDE9042335
:1037600006F0F2FBCDE90801199806F0D7FCCDE987
:103770000601DDE9082306F0C1F9CDE90C01169830
:1037800006F0CCFCCDE90A01DDE90C2306F0DCFBF8
:10379000CDE90E0105F06EFE1890294880690146BA
:1037A0000F90189806F0B9FF0AD21898169024487E
:1037B000C0690F90179906F0EBFF2149C8612DE011
:1037C0001F48406A08901E48C0690790089906F093
:1037D000D1FC099006F0A2FCCDE90C0118488069E3
:1037E00001460690169806F0D3FF079006F096FC67
:1037F00000224FF08043CDE9080106F07FF9CDE9C2
:103800000A01DDE90C2305F021FFCDE90E0105F0E9
:1038100031FE19900A488069169000BF00BFDDE9AB
:10382000191006F0A7FC1A90DDE91A0106F06EFEE9
:1038300012D2DDE91A1006F0ABFF199026E0000065
:103840003802002024000020E00100201D0000209C
:103850003EC32E390000E03FDDE9151006F05DFFA4
:1038600013D21B9806F05AFC944A954BCDE90C01F3
:1038700005F032FECDE90E0105F0FCFD1B90DDE9FF
:103880001A1006F085FF199000E008E08D48806965
:1038900001460F90169806F040FFFFF47FAE00BF80
:1038A000884880680F90169906F064FE149014986A
:1038B00006F034FCCDE90C0105F02CFCCDE90E013D
:1038C00005F0D8FD13907F4840680B9006F026FC69
:1038D000CDE90C0105F01EFCCDE90E0105F0CAFD95
:1038E0001290DDE9120106F053FF0F9006F0C2FDC1
:1038F00081B21C9801801C980088C8B97248407831
:1039000010F0700F14D000206E49C8610861139840
:103910004860084680680F90084640680E900F99EE
:1039200006F096FC69490968886201F0FFFD12E41F
:103930006448006901460F901A9806F01BFC1A9023
:103940001499129806F024FF01460F901A9806F079
:103950007FFC1190DDE9130100E0A6E006F018FFFE
:103960000F90119906F006FE5649086158481199C2
:1039700006F000FE5749099006F0FCFD56490A90F2
:1039800006F0F8FD0B9006F0C9FBCDE90C0105F03F
:10399000C1FBCDE90E0106F01DF8109042F228316E
:1039A0001098884203D200211C98817121E044F2D2
:1039B00050611098884203D201211C9881710BE05C
:1039C00048F6A0411098884203D202211C988171C8
:1039D00002E003211C9881711C9881791098C840DD
:1039E00010901C9800881C998979884081B21C9895
:1039F00001801098B0F5803F04D2109881B21C98D5
:103A0000818003E04FF6FF711C9881803348007875
:103A10003349087031480078401CC0B22F49087003
:103A2000062801D1002008702648806901460F90C1
:103A3000169806F072FE07D2244916980968886223
:103A400020491498486030E0169806F067FB002281
:103A50001346CDE90E0106F04FF921D20020194995
:103A6000C861002117480161149806F057FBCDE9A1
:103A70000C0105F04FFBCDE90E0105F0FBFC1149EF
:103A80004860084680680F90084640680E900F997D
:103A900006F0DEFB0D490968886201F047FD46E744
:103AA00000210A48016001F0B2FA0E4800780B4983
:103AB000097888427FF452AB00BF38E7A5E2ECC337
:103AC00067D8253F3802002048000020240000204D
:103AD0000024744900007042000090421E00002043
:103AE0001D0000201C00002010B54421FA4804F0FD
:103AF00099FDF94988792831FEF733FC10B9072080
:103B0000FDF726F810BD10B5F449F3481C30FFF757
:103B10003BF810BD70B505460E4600240AE056F885
:103B2000241055F8240006F055FC01D0002070BD8B
:103B3000601CC4B2032CF2DB0120F8E701B5AEB083
:103B400000202C902890219020901F901E901C9077
:103B5000199018904021E24804F064FDE049DE48E5
:103B60000268C1F801204268C1F805200089A1F867
:103B7000090015E39DF870102E98405C1B901B986F
:103B8000412802DB1B985A2802DD01202FB000BD1E
:103B90009DF87000401CC0B21C901AAA1CA92E9857
:103BA000FCF796FC08B90220F0E71A9806F062FCD0
:103BB000C0B21990199806F095FC0B901A9906F06E
:103BC000DDFDC8490C9006F0D5FC0D9006F0A6FA74
:103BD0000022C54BCDE90E0105F07EFCCDE91001B8
:103BE00005F0F8FE80B218901B98472802D04D28A7
:103BF0006FD1BEE119982B286CD023DC12286AD033
:103C00000FDC032868D005DCA0B3012872D002289D
:103C100071D1ADE0042841D00A2833D011286AD1EF
:103C2000F6E01C282FD006DC132870D014286FD0A3
:103C3000152860D138E11E2826D0262869D02828EA
:103C400059D13EE13B286FD00ADCA0F131000A28AF
:103C500051D2DFE800F0F250505024F1F0EFEEEDD9
:103C60005B286FD007DC3D286DD050286CD05A28D7
:103C700041D1EDE07AE05C2807D05D286FD05E2866
:103C800039D103E100BF00BF00BF189828B92C98B4
:103C900008B118207AE701202C9000BF00BF002057
:103CA0001D9019981E282DD006DC042809D00A285A
:103CB0000BD01C2858D110E035283AD05C2853D1BD
:103CC0003BE00120864908704EE0022084490870DC
:103CD0004AE0C4E1F8E09CE04BE0189810B10A28F3
:103CE0000AD103E003207E49087007E004207C49E4
:103CF000087003E03BE022E1142047E700BF00200A
:103D0000189031E0189828B10A280BD106E081E01C
:103D1000C9E02FE005207249087006E006207049CE
:103D2000087002E0142031E7FAE000BF002018908C
:103D30001AE007206A49087016E0189828B10A2886
:103D40000BD106E085E0F3E01BE008206449087031
:103D500006E009206249087002E0142016E794E0AA
:103D600000BF0020189000BF00BFEAE000BF00BF06
:103D700000BF00BF2C9808B1182007E702202C9044
:103D800000BF01201D901998032817D005DC48B109
:103D900001280BD0022839D10CE0262812D0502857
:103DA00034D12FE000204E4948702FE001204C49CB
:103DB00048702BE002204A49487027E00320484918
:103DC000487023E01898142806D01E2808D0282808
:103DD0000AD0322810D10BE00420414948700DE090
:103DE00005203F49487009E006203D49487005E03C
:103DF00007203B49487001E01420C7E600BF0020BF
:103E0000189003E008203649487000BF00BF98E0D2
:103E100000BF00BF02201D901998112804D012285D
:103E20000CD0132812D10DE000212D4841710DE076
:103E300075E073E071E06FE06DE046E00121284835
:103E4000417103E002212648417100BF00BF78E0C4
:103E500000BF189860B903201D9019985A2803D103
:103E600000211F4801710FE001211D4801710BE085
:103E700004201D9018980A2802D119985A2801D1B7
:103E8000142083E6002018905BE000BF05201D9001
:103E900019985D2803D101211148817002E00021A9
:103EA0000F4881704DE000BF06201D90199814281E
:103EB00003D101210A48C17002E000210848C17005
:103EC0003FE007201D903CE000BF08201D902C988B
:103ED00060B118205AE60000680200204C00002063
:103EE000AC0200200000C8420000E03F03202C90FC
:103EF0001998312803D10021FF48817108E01898F2
:103F00000A2803D10121FC48817101E014203DE61B
:103F10000020189015E000BF00BF00BF00BF00BF29
:103F200009201D9019983638C1B2F348C17108E0D4
:103F30000A201D90189808B1142027E601E01420EB
:103F400024E600BF1898002801DD17201EE6012195
:103F50001D9801FA00F01F99084201D0152015E6BE
:103F600001211D9801FA00F01F99084380B21F90AB
:103F700015E11898002801DD172007E61998042894
:103F80002BD007DC78B101280ED002280DD00328F1
:103F900050D123E0052822D0082838D0092837D06E
:103FA0001E2847D102E000BF00BF00BF0B201D90BC
:103FB000199830B1012808D0022807D01E280AD14C
:103FC00005E00121CC48017205E004E000BF0221B8
:103FD000C948017200BF00BF2EE000BF00BF0C2027
:103FE0001D901998032804D0042806D005280CD168
:103FF00007E00121C048817207E00221BE488172BA
:1040000003E00021BC48817200BF00BF14E000BF84
:104010000D201D901998082802D0092808D103E026
:104020000221B548417203E00021B348417200BF4C
:1040300000BF01E01420A9E500BF01211D9801FA8D
:1040400000F01F99084201D015209FE501211D981D
:1040500001FA00F01F99084380B21F909FE01B985F
:104060004638152872D2DFE800F00B7171111B255C
:104070002F7135713D7143494F717171525C66000A
:1040800000201D909C491A98C86061E001201D9095
:1040900099481A990161209840F00100209057E05A
:1040A00002201D9094481A994161209840F0020026
:1040B00020904DE003201D908F481A99816120982F
:1040C00040F00400209043E004201D908A49199894
:1040D00008773DE005201D901A9806F0AFF9864953
:1040E000086235E006201D9083481A9941622FE04E
:1040F00007201D9080481A99816229E008201D90B0
:104100007D481A99C16223E009201D9020E00A2011
:104110001D9079481A994163219840F0010021903F
:1041200016E00B201D9074481A998163219840F085
:10413000020021900CE00C201D906F481A99C16379
:10414000219840F00400219002E0FFE714201DE5D3
:1041500000BF01211D9801FA00F01E99084201D00C
:10416000192013E501211D9801FA00F040F2613198
:1041700008420BD01A9805F0D1FF00221346CDE972
:10418000100105F07FFC01D20420FFE401211D98FD
:1041900001FA00F01E99084380B21E9000BF00BFD4
:1041A0009DF870102E98405C00287FF4E3AC2198B5
:1041B00018B12C9808B902202C901E9810F0200FEE
:1041C00006D04D48006A4D49884201DD1B20DDE4E0
:1041D0004948807801280FD12C9802282ED14648D2
:1041E0004078082802D14448407810B31E9810F057
:1041F000010F23D11620C9E441484078C8B91E9860
:1042000010F0010F16D03C48C078012816D13A486A
:10421000C0680D9005F082FF4FF06632394BCDE952
:104220000E0105F06BFCCDE9100105F023F93249D0
:10423000C86003E0324800692F49C8601E9810F436
:10424000807F03D12E48C1682B48C1622A4800787C
:10425000012809D11E9810F0400F01D11C2095E4CF
:104260001E9820F040001E902348407910B101288C
:104270000ED106E000202B9001202A9002202990E8
:104280000DE002202B9000202A900120299006E0CA
:1042900001202B9002202A900020299000BF00BF0F
:1042A0001548C078012832D10020179023E0012161
:1042B000179801FA00F02199084218D00E483430BE
:1042C000179950F821000D9005F028FF4FF0663245
:1042D0000C4BCDE90E0105F011FCCDE9100105F004
:1042E000C9F8014604483430179A40F8221017984C
:1042F000401CC0B2179007E0AC0200207F969800E7
:10430000680200206666394017980328CFDB2C9896
:10431000032809D1F6488079012805D1219890F029
:10432000040001D0252031E4F24A283207CA25AB27
:1043300007C31F9810F4007F14D0ED48C0790628F9
:1043400001DD1D2022E4EB488179E948C0798142F2
:1043500008D0E748C07925A91190FEF702F808B9FE
:10436000072013E4E2480078022802D008287AD116
:104370008BE0219808B91A2008E41E9810F0500F1D
:1043800001D11C2002E4DA48406A119006F072F86C
:10439000C0B228902898062801DD1D2004E4D448E6
:1043A000007F14280BD0D248007F022805D11E9828
:1043B00010F0800F03D014206CE414206AE41E98DF
:1043C00020F050001E902898002804DD2898401EF8
:1043D000C0B2289002E0C648C079289022A9289847
:1043E000FDF7BFFF08B9072054E40020179048E00C
:1043F0000121179801FA00F0219908423DD0BC48EC
:10440000007F142830D1BB483430179950F8210070
:104410001090B8481C3050F821000F90109906F009
:10442000B7F91190B2483430179950F8210001467D
:104430001090119806F0ACF922AA179942F82100C1
:104440001798022819D1AB48006C22A9119017982F
:1044500051F820001090119906F09AF922AA1799A4
:1044600042F8210009E064E0A1483430179950F87F
:10447000211022AA179842F820101798401CC0B2A9
:10448000179017980328B3DBF8E0219808B91A2091
:1044900033E40020179048E00121179801FA00F05A
:1044A0002199084234D025A9179851F8200010907E
:1044B00090481C30179950F821000F90109906F081
:1044C00067F911908A483430179950F82100014655
:1044D0001090119806F05CF9014685483430179A1F
:1044E00040F82210179802281BD18248006C1190C6
:1044F0007F483430179950F821001090119906F038
:1045000047F901467A483430179A40F8221008E0FB
:1045100078483430179950F821207548343040F8E5
:1045200021201798401CC0B2179017980328B3DBBE
:10453000A4E02C9803286FD02198F0B300201790A6
:1045400067E00121179801FA00F02199084209D18A
:1045500068481C30179950F821206548343040F8DD
:10456000212052E06248007807284ED06048007948
:10457000B0BB60483430179950F8210025A910903D
:10458000179851F820000F90109905F0F3FD119045
:1045900057483430179950F821000146109011986F
:1045A00005F0E8FD014652483430179A40F82210D1
:1045B0001798022829D14F4800E02DE0006C119097
:1045C0004B483430179950F821001090119905F09C
:1045D000D1FD014646483430179A40F8221014E0C5
:1045E000FFE744481C30179950F8210011904048CB
:1045F000343050F821001090119905F0BBFD0146B0
:104600003B483430179A40F822101798401CC0B22B
:1046100017901798032894DB35480078C01E0728A8
:104620002AD2DFE800F0041C101D1F291E0021986B
:1046300008B900202C9022A90620FDF792FE08B9A7
:1046400007201EE418E0219808B900202C9022A928
:104650000720FDF786FE08B9072012E40CE000BF32
:104660000AE009E02248407828B121484078012832
:1046700001D01E2005E400BF00BF00BF00BF1C48E2
:104680004078082806D1219888B32C9801282ED08C
:104690001F201FE42C98022829D11548407820B902
:1046A000219820BB00202C90F0E11148C0680F90A9
:1046B00005F034FD00221346CDE9100105F01EF986
:1046C00001D1162006E40A484078082809D2DFE81C
:1046D00000F00804090AFEFDFCFB219808B900203F
:1046E0002C90D2E100BF219830B91A200FE4CDE11F
:1046F000AC0200206802002001212B9801FA00F092
:1047000001222A998A4010432199084201D1202090
:1047100013E4FF482B9950F821001190FD4850F800
:1047200021001090119906F033F81690F8482A9954
:1047300050F821001190F74850F82100109011997D
:1047400006F026F815901E9810F0800F7ED01E9867
:1047500020F080001E90EF49ED48FFF7DBF908B12B
:1047600021200AE4EB483438C078012813D1E94805
:104770003438806A0D9005F0D1FC4FF06632E64B7C
:10478000CDE90E0105F0BAF9CDE9100104F072FE91
:10479000E049343988621599084605F0EBFE0B9024
:1047A00005F0BCFCCDE90E011699084605F0E2FEC5
:1047B000079005F0B3FCCDE90A01D6483438806A89
:1047C000039005F0ABFCCDE90601D2483438806A8D
:1047D000019005F0A3FC0022D04BCDE9020105F0C9
:1047E0008DF9CDE90401DDE9062305F087F9CDE96E
:1047F0000801DDE90A2305F0A7FBCDE90C01DDE99D
:104800000E2305F0A1FBCDE9100104F033FE149056
:104810000021149805F07AFE01D222200BE4DDE994
:104820001510FBF7FAFE0B9005F078FCCDE90E01B0
:10483000149805F073FCCDE90A0104F0F5FD81F050
:104840000041CDE90C01DDE90E2300E05FE004F05A
:10485000FDFECDE9100104F00DFE1490AD48343892
:104860004078032803D1149880F000401490A948A0
:104870003438806A0021119005F048FE0BD214985C
:1048800080F000401490A3483438806A80F00041E2
:10489000A04834388162DDE9141005F06BFE0C90FD
:1048A000169905F06BFF0D9005F038FC00229C4B2B
:1048B000CDE90E0105F022F9CDE9100104F0DAFD91
:1048C00001469448243803E0D3E0D1E0CFE0CDE0C6
:1048D0002B9A40F822101499169805F04BFE0C9074
:1048E000159905F047FC0D9005F018FC00228C4B43
:1048F000CDE90E0105F002F9CDE9100104F0BAFD91
:104900000146844824382A9A40F82210ADE001215B
:104910002B9801FA00F001222A998A40104320992D
:10492000084201D1232012E41E9820F00E001E90B0
:1049300078483438C078012829D10020179023E026
:104940000121179801FA00F02099084218D0714807
:104950002438179950F821000D9005F0DFFB4FF037
:1049600066326D4BCDE90E0105F0C8F8CDE91001B6
:1049700004F080FD014667482438179A40F8221059
:104980001798401CC0B2179017980328D8DB6148CD
:1049900024382B9950F8210001461190169805F003
:1049A000F7FE16905B4824382A9950F821000146FA
:1049B0001190159805F0ECFE1590DDE91510FBF748
:1049C0002CFE1390534824382A9950F82100119056
:1049D000504824382B9950F8210010901199FBF77A
:1049E0001CFE4C49343988620846806A01460E90A4
:1049F000139805F0CDFE0F9005F090FB21F00041DB
:104A0000CDE9100104F036FD1290129805F086FBF6
:104A1000444A454BCDE9100105F06EF925D21298B4
:104A200005F07CFB00223E4BCDE9100105F064F956
:104A300001D2212013E437483438806A0B9005F006
:104A40006DFB3A4A3A4BCDE90C0105F057F8CDE938
:104A50001001129805F062FBCDE90E01DDE910238B
:104A600005F04AF901D221205DE40EE000BF00BF4D
:104A700000BF219808B91A2055E426492448FFF7B9
:104A800049F808B121204EE400BF00BF40F22131B7
:104A90001E9888431E902C9818B11E9820F4E05060
:104AA0001E901E9808B124203DE41A483438006A4C
:104AB00017491C3988611748343880784870154880
:104AC0003438C068086113483438C06A1190084609
:104AD000C0681090119905F07DFC14D00C481C386A
:104AE000407A50B10B483438C06A119008481C38DD
:104AF000407A10901199FDF778F806483438C06A6A
:104B000003491C39C8600348343890F8300011E07C
:104B100084020020E0020020666639400000104058
:104B20000000E03F7B14AE47E17A743FFCA9F1D26C
:104B30004D62503FC94908750846417AC848807A95
:104B400081420CD0C548C0681190C548807A109049
:104B50001199FDF74AF8C248807AC0494872BF48A7
:104B6000017ABF48407A814208D0BD48407A11900E
:104B7000FBF797FDBA48407AB8490872B848007800
:104B8000012804D1B648406A119001F023F9B448D5
:104B90004079B2490871B248C07888702C980328CF
:104BA0000DD1AF488079487108464079012803D17A
:104BB000AB48C06B086402E00020A8490864A7481D
:104BC0008179A748C079814208D0A548C079A34916
:104BD0008871084625A90EC928300EC0A048007962
:104BE0009E49C8709E480078801E082843D2DFE89E
:104BF00000F0041327142D42333C22A92898FDF716
:104C000001FB964881792898814204D1934822A9D2
:104C10000EC928300EC02EE000BF2C9828B100220B
:104C200090498F48343000F0BDFE00228D4922A803
:104C300000F0B8FE894822A90EC91C300EC01AE047
:104C400086491C310620FDF7DDFA14E083491C314A
:104C50000720FDF7D7FA0EE080498148D0E90D23FF
:104C6000C06BC1E90D23C86305E07C4800214163A6
:104C70008163C16300BF00BF7948407877490870FD
:104C800008460078082873D02C98022870D108466E
:104C9000007808280BD2DFE800F0040B18324C5BD8
:104CA0006C7C00226F496E48343000F07BFE7FE060
:104CB0006A48407811906948006910900146684838
:104CC0003430119A00F06EFE72E00123DDE92920F4
:104CD0002B99CDE90423CDE902106048437802699D
:104CE0005F48CDE90023806A03465D4A103202F135
:104CF0002401119059481C3000F07DFE58E000233B
:104D0000DDE929202B99CDE90423CDE90210534890
:104D1000437802695248CDE90023806A0346504A2D
:104D2000103202F1240111904C481C3000F063FE57
:104D30003EE00023494800934078119047480069BD
:104D40001090014646483430119A01F0A1F82FE046
:104D500001234248009340781190404800690023A5
:104D6000109001463E483430119A01F091F81FE04E
:104D700027E00023394800934078119037480069B4
:104D800001231090014636483430119A01F080F822
:104D90000EE0012331480093407811902F480069BC
:104DA000109001462E483430119A01F071F800BF7E
:104DB00000BF2A492A48D0E90D23C06BC1E9072367
:104DC00048622748007A2549C8710846C07998B3D7
:104DD00000F0CEFD2148C079012816D12248407844
:104DE000022836D000BF012080F3108800BF1F4882
:104DF000007840F008001D49087000BF002080F3D3
:104E0000108800BF00F0B2FB23E0012013490870B6
:104E100000200871C8704870887148720872124882
:104E20004078022812D00846807925A91190FDF714
:104E300098FA10B9072004E40EE0084825A90EC925
:104E400028300EC0FCF744FEFBF70EFC0720FBF7F2
:104E500006FF00200149C87100200BE46802002011
:104E6000AC020020000080BF480000201A00002093
:104E7000411CC8B2122800D10020704700B912208E
:104E8000411EC8B270472DE9F047FF480078FFF790
:104E9000F5FF054605EB450000EBC500FB4901EBBE
:104EA0008004FB480078854201D1BDE8F0874FF0CF
:104EB0008040616A05F05EFB8146A16A05F05AFBFD
:104EC0008046A16905F029FC01D2A06908E04FF0F5
:104ED0008040616A05F04EFB8046A16A05F04AFBFE
:104EE00060612846FFF7CAFF0546E9480078854219
:104EF00006D1E8480078854235D1FEF704F932E062
:104F00002DE0264605EB450000EBC500DF4901EB2F
:104F100080042846FFF7B2FF0546DE480078854248
:104F200001D1FEF7F0F8D4E9050105F053FA16D0E7
:104F30004FF08040616A05F01DFB8146A16A05F0D3
:104F400019FB8046716905F015F907463846A169D5
:104F500005F0DCFA01D2676101E0A0696061CC482C
:104F600000788542CDD1CA48007800EB400101EBC2
:104F7000C000C64901EB8006C5480078FFF778FFFE
:104F800005462DE0344605EB450000EBC500BF4962
:104F900001EB80067169606905F0B8FA15D24FF02F
:104FA0008040616A05F0E6FA8146A16A05F0E2FAFE
:104FB0008046616905F0DEF807463846716905F0FC
:104FC000A5FA02D27761B2480570D6E9050105F06D
:104FD00001FA01D1AE4805702846FFF749FF0546A2
:104FE000A94800788542CDD100BF5EE710B51C21ED
:104FF000A94803F017FB0020A6490870A2490870D1
:105000000120A64908700020A149087010BD00B514
:105010009D4800789F49097888420FD09D480078C4
:10502000FFF726FF02469B48007899490978884295
:1050300001D1974802709748027000BF00BD9248A6
:10504000007894490978884201D10020704791483E
:10505000007800EB400101EBC0008C4901EB8000BF
:10506000F4E72DE9F0418B480078FFF701FF804617
:1050700085480078804502D10020BDE8F08108EB2A
:10508000480101EBC801814A02EB8101486905F042
:1050900045F8044604F0C8F9064604F0EBF9ECE7DD
:1050A0007C4800787D490978884201D10120704709
:1050B0000020FCE72DE9F74F92B006468B46724878
:1050C000007800EB400101EBC000704901EB800467
:1050D00000202061A06220707148606200257AE0A3
:1050E000704A52F8251056F8250005F043FA0021C1
:1050F000099005F012FB14D26A4A52F8251056F8AE
:10510000250005F037FA059005F008F80022664BF7
:10511000CDE9060104F0E0F9CDE9080104F02AFC2C
:1051200013E0604A52F8251056F8250005F022FADF
:10513000059004F0F3FF00225B4BCDE9060104F07B
:1051400003FFCDE9080104F015FC0EA941F8250084
:1051500051F82510504A52F82520881A01D40146EA
:1051600000E04142221D42F82510201D50F8250084
:105170002169814201D9206902E0201D50F82500F3
:1051800020610EA951F82510434A52F82520881AAB
:1051900005F090F90990434850F82510099805F05A
:1051A00057F807460BA840F825700021384605F04F
:1051B000ADF905D22846FDF76FFA21780843207033
:1051C0003946384605F0D6F90990A16A04F0D2FFB5
:1051D000A062681CC5B2032D82DBA06A04F09EFFAA
:1051E000CDE9060104F020F9CDE9080104F042F907
:1051F000A062206910B915B0BDE8F08F00215846B3
:1052000005F084F902D2DFF898B006E0149820B1D6
:105210005846A16A05F0AEF98346584604F07EFF71
:105220000022224BCDE9080104F02CFC01D24FF002
:105230007E5BA06A04F072FF02460B46CDE90601D0
:1052400000201A4904F002FACDE9080104F012F92D
:1052500080464FF00009002570E00BA951F82500A9
:10526000002105F0B7F867D00BA951F82500414699
:1052700005F080F90BA941F8250051F8250004F04C
:105280004DFF02460B4613E02D000020EC020020EB
:105290002F0000202C000020040600202E000020FB
:1052A0009976967E280100200000E03F0000F03F44
:1052B000CDE906010020A24904F0C8F921F000411F
:1052C000CDE9080104F0D6F80A909E4951F825006E
:1052D0000A9905F04FF95946099005F01EFA01D2D6
:1052E000584605E0974951F825000A9905F042F91A
:1052F000834694490C3151F825000A9905F03AF992
:105300000990616A05F009FA01D2606A06E08D49E8
:105310000C3151F825000A9905F02CF960620BAAAE
:1053200052F82510884A52F8250005F023F949461D
:10533000099005F023FA8146681CC5B2032D8CDB69
:105340008248007882490978884203D10020606150
:10535000E06185E0484604F0E1FE7E4A784BDB1EC2
:10536000CDE9080104F0C8FC02D20020E06177E03A
:10537000484604F0D3FE774A774BCDE9060104F0A6
:10538000BBFC03D2484604F0C9FE01E071487249F3
:10539000CDE9080104F06EF88146484604F0BEFEEF
:1053A0000022674BCDE9020104F0DCFC00226B4BCC
:1053B000CDE9040104F0A2FBCDE9060104F034F8C4
:1053C000CDE9080104F056F88246504604F0A6FEE6
:1053D00000225B4BCDE9000104F0C4FC594A0C3AB1
:1053E000CDE90401916B606A05F0C4F85146009064
:1053F00005F0C0F8019004F091FECDE90201DDE96D
:10540000042304F023F900221346CDE9060104F039
:1054100039FB02D2002001461DE0504604F07EFE1A
:105420000022474BCDE9020104F09CFC454A0C3AAE
:10543000CDE90601916B606A05F09CF85146029037
:1054400005F098F8039004F069FECDE90401DDE968
:10545000062304F0FBF8CDE9080104F00BF8E06145
:105460005946584605F086F82062374A0C3A916949
:10547000206A05F04BF801D2206A02E032480C386D
:1054800080690990E069099905F040F801D2E06966
:105490000BE02D4A0C3A9169206A05F037F801D2E9
:1054A000206A02E028480C388069A06126480C3840
:1054B0000BA90EC90C300EC023490C39206A886133
:1054C00008460EA90EC90EC0254800781F4908706D
:1054D00008460078FFF7CCFC21490870FFF7D3FCA1
:1054E00000BF88E6002008E01E4951F82010164A47
:1054F0000C3A42F82010411CC8B20328F4DB704774
:105500001248007812490978884206DB0F48007873
:105510000F490978401AC0B270470D4800780B490E
:105520000978401AC0F11200C0B2F5E710B5FDF7D6
:10553000EAFD074800780C490870FFF7A4FC10BD8D
:105540000000F03F34010020100600202D00002054
:105550002C000020E90B21E7FDFFEFBF0000E03F3A
:105560002E0000204C0000202F00002010B500BFAE
:10557000FA480478ECB30120F949487014F0020F9E
:1055800002D0FBF743FB1AE014F0040F03D0022013
:10559000FBF73CFB13E014F0080F03D00320FBF7EC
:1055A00035FB0CE014F0100F03D00420FBF72EFBAA
:1055B00005E014F0200F02D00520FBF727FB14F0C4
:1055C000010F14D00120FBF74AFB012000F0E4F9A1
:1055D000E448007820F01000E2490870002000F054
:1055E000DBF900BFDF48007810F0100FFAD001207F
:1055F00000E008E000F0D0F9D84800780020D74952
:10560000087000F0C9F9D7480478F4B314F0100F0B
:1056100003D00120D249087010BD14F0010F0DD045
:10562000FCF7F7F8012000F0B7F9CE48007820F039
:105630000100CC490870002000F0AEF914F0680FAA
:1056400054D0C748407820B1C548407810F07C0F4E
:1056500040D0C3484078082804D1FDF754FD01200C
:10566000BF498870BE48407810B90220BC49887094
:1056700014F0400F0ED0BA484078082802D14020DC
:10568000B7494870B648807800E0ABE040F00800C9
:10569000B349887014F0080F07D0B148407810F073
:1056A000200F02D11020AE49487014F0200F11D005
:1056B0000620FBF7D4FAAA48807810F0020F01D038
:1056C00044F00404A648807840F00400A44988709F
:1056D00020204870012000F05FF9A248007820F0F7
:1056E0006800A0490870002000F056F914F0020F7D
:1056F0004DD014F0680F3ED19948407848B1984891
:10570000407810F0500F36D09548807810F0020F96
:1057100031D09348807810F0040F16D09248407A28
:1057200040B1914AD168507AFCF7F6F94FF47A60AB
:1057300000F039FE8C48007A38B18B49087AFAF7C4
:10574000A3FF4FF47A7000F02EFEFFF778FC60B1F3
:105750008348807810F0080F07D1082080494870EE
:10576000FDF7E4FCFDF724FA02E000207C494870D4
:1057700000207B498870012000F00EF979480078FC
:1057800020F0020077490870002000F005F914F0BD
:10579000040F27D07248407810F0300F12D07048B4
:1057A000C07878B96E48807810F0040F03D0FCF709
:1057B0008FF9FAF759FF6A48807840F0020068498B
:1057C000887003E00020664988704870012000F06E
:1057D000E3F86448007820F0040062490870002073
:1057E00000F0DAF85E48407810F07C0F01D0FDF749
:1057F0009DFC5B48407820280AD15948807810F0F9
:10580000020F05D0FCF7E3FF10B91020544948708F
:105810005348807800287FF4ABAE00BFFCE670B53B
:105820000446FFF7A3FE4E48007800B170BD207813
:1058300018B90020FBF78CF917E02078242806D14E
:105840002046FCF7E3FF0546FBF782F90DE04448EC
:105850004078012803D10920FBF77AF905E02046BA
:10586000FEF76CF90546FBF773F900BFDEE710B5EC
:10587000012000F091F83B48007840F002003949DF
:105880000870002000F088F810BD70B500260025D3
:10589000FBF718FA32484078012803D10220FBF7C1
:1058A000DEF911E0FCF793FF40B12E48007840F09C
:1058B00020002C490870FFF759FE02E0002028491B
:1058C00048702A48FCF785FF00BF39E00A2C01D058
:1058D0000D2C08D10020254948550846FFF79FFFA9
:1058E000002600252CE02EB1292C29D1012E27D10C
:1058F000002625E0202C23DD2F2C21D0282C01D1BF
:1059000001261DE03B2C01D1022619E04F2D05DBBD
:105910000B20FBF71DF90026002511E0612C0ADBA6
:105920007A2C08DCA4F12000C2B22846691CCDB252
:105930000E490A5404E02846691CCDB20B490C54A8
:10594000FAF70EFF0446FF28C0D1FFF790FFFFF7DC
:105950000DFE034800780028B7D070BD1B00002062
:10596000480000201A0000206802002020060020C5
:1059700010B5FFF77CFF00BFFFF7F8FD084800787F
:1059800000B110BDFFF75BFB0028F5D1044840785B
:105990000828F1D000BFF4E780F3108870470000BA
:1059A0004800002070B504460D461646FE4890F8A3
:1059B000400010F0200F02D02046FCF7AEFBFB4861
:1059C0004078022800D170BD00BFFFF7CFFDF74837
:1059D000007800B1F7E7FFF763FB10B1FFF747FF6F
:1059E00000E000E0F1E700BF324629462046FFF71D
:1059F00061FB00BFE7E72DE9FF4F9DB005468846F4
:105A00001446DDE92D792C9E54F8261055F8260011
:105A100004F0B0FB1C9054F8271055F8270004F050
:105A2000A9FB1B9054F8260080F000401A9054F80F
:105A3000270080F00040199058F826001C9904F0C7
:105A4000A7FE189058F827001B9904F0A1FE1790A4
:105A500000200F901799199804F08CFD0690189962
:105A60001A9804F087FD0590069904F083FB0790CF
:105A700004F054FBCDE90A01DDE9181004F07AFDC9
:105A8000069017991A9804F075FD0590069904F090
:105A90007FFE079004F042FBCDE90801DDE90A230F
:105AA00003F078FACDE90C0103F0E4FC0E902F9896
:105AB000C0B10E9804F032FBBD4ABE4BCDE90C01DB
:105AC00004F01AF926D80E9804F028FBBA4ABB4B0A
:105AD000CDE90A0104F038FACDE90C0103F0CAFC63
