:020000040800F2
:10000000D8140020A589000815020008170200086E
:100010001B0200081F020008230200080000000065
:10002000000000000000000000000000270200089F
:1000300029020008000000002B0200082D02000821
:10004000BF890008BF890008BF890008BF89000870
:10005000BF890008BF890008BF890008BF89000860
:10006000BF890008BF890008BF890008BF89000850
:10007000BF890008BF890008BF890008BF89000840
:10008000BF890008BF890008BF890008BF89000830
:10009000BF890008BF890008BF890008435F0008C6
:1000A000BF890008BF890008BF890008BF89000810
:1000B000BF89000825500008F7520008BF890008D2
:1000C000BF890008BF890008BF890008BF890008F0
:1000D000BF890008FF470008BF890008BF890008E2
:1000E000D3190008BF890008BF89000800F002F892
:1000F00000F03AF80AA090E8000C82448344AAF188
:100100000107DA4501D100F02FF8AFF2090EBAE885
:100110000F0013F0010F18BFFB1A43F0010318473B
:1001200040AF000060AF0000103A24BF78C878C12B
:10013000FAD8520724BF30C830C144BF04680C60ED
:10014000704700000023002400250026103A28BF35
:1001500078C1FBD8520728BF30C148BF0B60704739
:100160001FB51FBD10B510BD08F09CFC1146FFF770
:10017000F7FF00F00FF808F0BAFC03B4FFF7F2FF46
:1001800003BC08F0BBFC000030BF72B662B680F35F
:1001900008887047012006F033FA06F0A1FA04F04F
:1001A000F3FA04F00DFE05F065F905F081FE20215B
:1001B000154808F039FC012013490870002080F32D
:1001C000108800BF00BF04F09CFB00F0B7F904F0FA
:1001D00030FE00F022F901F082FB03F0D7F802F0C4
:1001E0006BFB05F0F8F802F041FF00F0B6F90020D3
:1001F000054908700549087005490870024988706A
:10020000C87003F0A2FADEE74C00002031000020A5
:1002100032000020704700BFFEE700BFFEE700BFCE
:10022000FEE700BFFEE77047704770477047000069
:100230000CB50020019000906B48006840F48030BD
:100240006949086000BF6848006800F40030009009
:100250000198401C0190009818B90198B0F5A06F62
:10026000F1D16148006810F4003F02D001200090F5
:1002700001E0002000900098012842D15B4800680E
:1002800040F01000594908600846006820F003005B
:1002900008600846006840F0020008605248406864
:1002A000514948600846406848600846406840F444
:1002B000806048600846406820F47C10486008462A
:1002C000406840F4E81048600846006840F08070DC
:1002D000086000BF4448006810F0007FFAD0424830
:1002E000406820F00300404948600846406840F0FC
:1002F0000200486000BF3C48406800F00C0008283D
:10030000F9D10CBD10B5FFF793FF10BD10B53648FD
:10031000006840F0010034490860084640683449EC
:1003200008403149486008460068324908402E4973
:1003300008600846006820F480200860084640688D
:1003400020F4FE0048604FF41F008860FFF7DAFFDA
:100350004FF000602849086010BD10B50021002052
:100360000022214B5B6803F00C0121B1042906D067
:10037000082928D107E0214B214C236027E01F4B9F
:100380001F4C236023E0184B5B6803F47010164B7E
:100390005B6803F48032022303EB904022B9194BCF
:1003A0004343174C23600DE00F4B5B6813F4003F91
:1003B00004D0144B4343124C236003E00F4B4343E0
:1003C0000F4C236003E00D4B0D4C236000BF00BFBA
:1003D000054B5B68C3F303130B4CE15C084B1B68D4
:1003E000CB40074C236010BD0010024000200240AB
:1003F0000000FFF8FFFFF6FE08ED00E000127A00B3
:100400000000002000093D000400002010B500227B
:100410000821144808F040F910BD10B50822114910
:10042000104608F00FF9FFF7F1FF10BD10B50446B4
:10043000022C05D1012208210A4808F02DF901E01B
:10044000FFF7E4FF10BD10B50446074840780228C6
:1004500000D110BD03F0ECF92046FFF7E7FF00BF25
:10046000F7E70000000C01404C00002070B5044686
:10047000012000F05FF8204608F047F8054600200C
:1004800000F058F8284670BD70B504460D460120AE
:1004900000F050F82946204608F054F8002000F0FB
:1004A00049F870BD2DE9F04107460C461646002577
:1004B00011E0680001D1E81101D0012000E0002026
:1004C000054620782844C5B214F8011B38467F1C25
:1004D000FFF7DAFF761E002EEBD129463846FFF7EC
:1004E000D3FFBDE8F0812DE9F04106460F46904666
:1004F000002512E038467F1CFFF7B8FF044668006D
:1005000001D1E81101D0012000E0002005462819A2
:10051000C5B206F8014BA8F10108B8F1000FE9D106
:100520003846FFF7A3FFA84202D10120BDE8F081C1
:100530000020FBE780F310887047000010B54421CD
:10054000F94808F071FAF8498879283104F0B9FAC5
:1005500010B9072003F086F910BD10B5F349F24831
:100560001C3005F035FF10BD70B505460E46002461
:100570000AE056F8241055F824000AF027F901D0B3
:10058000002070BD601CC4B2032CF2DB0120F8E730
:1005900001B5AEB000202C902890219020901F90A3
:1005A0001E901C90199018904021E14808F03CFAE8
:1005B000DF49491CDC4802680A6042684A600089D9
:1005C000088115E39DF870102E98405C1B901B98D5
:1005D000412802DB1B985A2802DD01202FB000BD04
:1005E0009DF87000401CC0B21C901AAA1CA92E983D
:1005F00001F0D8FF08B90220F0E71A980AF036F99E
:10060000C0B2199019980AF069F90B901A990AF07A
:10061000AAFAC8490C900AF0A9F90D9009F07AFFDE
:100620000022C54BCDE90E0109F050F9CDE91001CA
:1006300009F0CCFB80B218901B98472802D04D28B7
:100640006FD1BEE119982B286CD024DC12286AD017
:1006500010DC032868D006DC00286FD001286ED09B
:1006600002286DD1ADE0042840D00A2832D01128EC
:10067000F7D1F6E01C282ED006DC132870D0142801
:100680006FD01528EDD138E11E2825D0262869D055
:100690002828E6D13EE13B286FD00ADCA0F13100EA
:1006A0000A284DD2DFE800F0EE4C4C4C23EDECEB89
:1006B000EAE95B286FD006DC3D286DD050286CD06D
:1006C0005A28CED1EDE05C2807D05D2870D05E2896
:1006D000C7D104E100BF00BF00BF189828B92C980B
:1006E00008B118207AE701202C9000BF00BF00203D
:1006F0001D9019981E282ED006DC042809D00A283F
:100700000BD01C2859D110E035283BD05C2854D19F
:100710003CE00120864908704FE0022084490870BF
:100720004BE0C4E1F9E09DE04CE0189810B10A28D4
:100730000BD106E003207E49087008E03FE03FE06F
:1007400025E104207A49087001E0142046E700BF43
:100750000020189031E0189828B10A280BD106E043
:1007600081E0C9E02FE005207149087006E006200D
:100770006F49087002E0142030E7F9E000BF002064
:1007800018901AE007206A49087016E0189828B1F6
:100790000A280BD106E085E0F2E01BE0082064495E
:1007A000087006E009206249087002E0142015E78D
:1007B00094E000BF0020189000BF00BFE9E000BF38
:1007C00000BF00BF00BF2C9808B1182006E7022028
:1007D0002C9000BF01201D901998032817D005DC2C
:1007E00048B101280BD0022839D10CE0262812D0BC
:1007F000502834D12FE000204D4948702FE00120CF
:100800004B4948702BE002204949487027E00320FB
:100810004749487023E01898142806D01E2808D0AD
:1008200028280AD0322810D10BE004204049487013
:100830000DE005203E49487009E006203C4948701B
:1008400005E007203A49487001E01420C6E600BFE1
:100850000020189003E008203549487000BF00BF11
:1008600097E000BF00BF02201D90199811280AD000
:1008700012280CD0132812D10DE078E076E074E055
:1008800072E070E04AE000212948417107E001214F
:100890002748417103E002212548417100BF00BF94
:1008A00077E000BF189860B903201D9019985A2866
:1008B00003D100211E4801710FE001211C48017184
:1008C0000BE004201D9018980A2802D119985A2884
:1008D00001D1142082E6002018905AE000BF0520C4
:1008E0001D9019985D2803D101211148817002E003
:1008F00000210F4881704CE000BF06201D90199820
:10090000142803D101210A48C17002E000210848DF
:10091000C1703EE007201D903BE000BF08201D9005
:100920002C9858B1182059E66C0000205000002087
:10093000B00000200000C8420000E03F03202C90DF
:100940001998312803D10021FE48817108E01898D8
:100950000A2803D10121FB48817101E014203DE602
:100960000020189015E000BF00BF00BF00BF00BF0F
:1009700009201D9019983638C1B2F248C17108E0BB
:100980000A201D90189808B1142027E601E01420D1
:1009900024E600BF1898002801DD17201EE601217B
:1009A0001D9801FA00F01F99084201D0152015E6A4
:1009B00001211D9801FA00F01F99084380B21F9091
:1009C00015E11898002801DD172007E6199804287A
:1009D0002BD007DC78B101280ED002280DD00328D7
:1009E00050D123E0052822D0082838D0092837D054
:1009F0001E2847D102E000BF00BF00BF0B201D90A2
:100A0000199830B1012808D0022807D01E280AD131
:100A100005E00121CB48017205E004E000BF02219E
:100A2000C848017200BF00BF2EE000BF00BF0C200D
:100A30001D901998032804D0042806D005280CD14D
:100A400007E00121BF48817207E00221BD488172A1
:100A500003E00021BB48817200BF00BF14E000BF6B
:100A60000D201D901998082802D0092808D103E00C
:100A70000221B448417203E00021B248417200BF34
:100A800000BF01E01420A9E500BF01211D9801FA73
:100A900000F01F99084201D015209FE501211D9803
:100AA00001FA00F01F99084380B21F909FE01B9845
:100AB0004638152872D2DFE800F00B7171111B2542
:100AC0002F7135713D7143494F717171525C6600F0
:100AD00000201D909B491A98C86061E001201D907C
:100AE00098481A990161209840F00100209057E041
:100AF00002201D9093481A994161209840F002000D
:100B000020904DE003201D908E481A998161209815
:100B100040F00400209043E004201D90894919987A
:100B200008773DE005201D901A9809F083FE85495D
:100B3000086235E006201D9082481A9941622FE034
:100B400007201D907F481A99816229E008201D9096
:100B50007C481A99C16223E009201D9020E00A20F8
:100B60001D9078481A994163219840F00100219026
:100B700016E00B201D9073481A998163219840F06C
:100B8000020021900CE00C201D906E481A99C16360
:100B9000219840F00400219002E0FFE714201DE5B9
:100BA00000BF01211D9801FA00F01E99084201D0F2
:100BB000192013E501211D9801FA00F040F261317E
:100BC00008420BD01A9809F0A5FC00221346CDE983
:100BD000100109F053F901D20420FFE401211D980E
:100BE00001FA00F01E99084380B21E9000BF00BFBA
:100BF0009DF870102E98405C00287FF4E3AC21989B
:100C000018B12C9808B902202C901E9810F0200FD3
:100C100006D04C48006A4C49884201DD1B20DDE4C7
:100C20004848807801280FD12C9802282ED14548B9
:100C30004078082802D14348407810B31E9810F03D
:100C4000010F23D11620C9E440484078C8B91E9846
:100C500010F0010F16D03B48C078012816D1394852
:100C6000C0680D9009F056FC4FF06632384BCDE964
:100C70000E0109F03FF9CDE9100108F0F5FD314909
:100C8000C86003E0314800692E49C8601E9810F41E
:100C9000807F03D12D48C1682A48C1622948007865
:100CA000012809D11E9810F0400F01D11C2095E4B5
:100CB0001E9820F040001E902248407910B1012873
:100CC0000ED106E000202B9001202A9002202990CE
:100CD0000DE002202B9000202A900120299006E0B0
:100CE00001202B9002202A900020299000BF00BFF5
:100CF0001448C078012832D1002017902CE001213F
:100D0000179801FA00F02199084218D00D483430A4
:100D1000179950F821000D9009F0FCFB4FF0663256
:100D20000B4BCDE90E0109F0E5F8CDE9100108F013
:100D30009BFD014603483430179A40F8221017985B
:100D4000401C07E0B00000207F9698006C00002057
:100D500066663940C0B2179017980328CFDB2C98ED
:100D6000032809D1FD488079012805D1219890F008
:100D7000040001D0252031E4F94A283207CA25AB06
:100D800007C31F9810F4007F14D0F448C0790628D8
:100D900001DD1D2022E4F2488179F048C0798142CA
:100DA00008D0EE48C07925A9119003F08AFE08B951
:100DB000072013E4E9480078022802D008287AD1F5
:100DC0008BE0219808B91A2008E41E9810F0500F03
:100DD00001D11C2002E4E148406A119009F046FD6F
:100DE000C0B228902898062801DD1D2004E4DB48C5
:100DF000007F14280BD0D948007F022805D11E9807
:100E000010F0800F03D014206CE414206AE41E98C4
:100E100020F050001E902898002804DD2898401EDD
:100E2000C0B2289002E0CD48C079289022A9289825
:100E300003F047FE08B9072054E40020179048E06B
:100E40000121179801FA00F0219908423DD0C348CA
:100E5000007F142830D1C2483430179950F821004F
:100E60001090BF481C3050F821000F90109909F0E5
:100E700085FE1190B9483430179950F82100014689
:100E80001090119809F07AFE22AA179942F82100D1
:100E90001798022819D1B248006C22A9119017980E
:100EA00051F820001090119909F068FE22AA1799B4
:100EB00042F8210009E064E0A8483430179950F85E
:100EC000211022AA179842F820101798401CC0B28F
:100ED000179017980328B3DBF8E0219808B91A2077
:100EE00034E40020179048E00121179801FA00F03F
:100EF0002199084234D025A9179851F82000109064
:100F000097481C30179950F821000F90109909F05C
:100F100035FE119091483430179950F82100014660
:100F20001090119809F02AFE01468C483430179A27
:100F300040F82210179802281BD18948006C1190A4
:100F400086483430179950F821001090119909F013
:100F500015FE014681483430179A40F8221008E007
:100F60007F483430179950F821207C48343040F8BD
:100F700021201798401CC0B2179017980328B3DBA4
:100F8000A4E02C9803286FD02198E8B30020179094
:100F900067E00121179801FA00F02199084209D170
:100FA0006F481C30179950F821206C48343040F8B5
:100FB000212052E06948007807284ED06748007920
:100FC000B0BB67483430179950F8210025A910901C
:100FD000179851F820000F90109909F0C7FA119056
:100FE0005E483430179950F821000146109011984E
:100FF00009F0BCFA014659483430179A40F82210DB
:101000001798022829D100E02EE05548006C119075
:1010100052483430179950F821001090119909F076
:10102000A5FA01464D483430179A40F8221014E0D2
:10103000FFE74B481C30179950F8210011904748A2
:10104000343050F821001090119909F08FFA0146C0
:1010500042483430179A40F822101798401CC0B20A
:1010600017901798032894DB3C480078C01E072887
:101070002AD2DFE800F0041C101D1F291E00219851
:1010800008B900202C9022A9062003F01AFD08B907
:1010900007201FE418E0219808B900202C9022A90D
:1010A000072003F00EFD08B9072013E40CE000BF91
:1010B0000AE009E02948407828B12848407801280A
:1010C00001D01E2006E400BF00BF00BF00BF2348C0
:1010D0004078082807D1219800280ED02C980128A4
:1010E000FBD01F201FE42C98022806D11B48407813
:1010F00020B921980028F8D12C90F0E11748C06859
:101100000F9009F007FA00221346CDE9100108F00C
:10111000F1FD01D1162006E410484078082809D2D4
:10112000DFE800F00804090AFDFCFBFA219808B981
:1011300000202C90D2E100BF219808B91A200EE4BB
:1011400001212B9801FA00F001222A998A401043CC
:101150002199084206D1202017E40000B0000020A9
:101160006C000020FE482B9950F821001190FD489A
:1011700050F821001090119909F000FD1690F848E0
:101180002A9950F821001190F64850F8210010904B
:10119000119909F0F3FC15901E9810F0800F7CD087
:1011A0001E9820F080001E90EE49ED48FFF7DCF914
:1011B00008B1212009E4EB483438C078012813D164
:1011C000E8483438806A0D9009F0A4F94FF066328F
:1011D000E54BCDE90E0108F08DFECDE9100108F0D8
:1011E00043FBE049343988621599084609F0BEFB93
:1011F0000B9009F08FF9CDE90E011699084609F018
:10120000B5FB079009F086F9CDE90A01D5483438D5
:10121000806A039009F07EF9CDE90601D14834389F
:10122000806A019009F076F90022D04BCDE90201E5
:1012300008F060FECDE90401DDE9062308F05AFE5E
:10124000CDE90801DDE90A2309F07AF8CDE90C01BE
:10125000DDE90E2309F074F8CDE9100108F004FB74
:1012600014900021149809F04DFB01D222200AE4C9
:10127000DDE9151001F03BFA0B9009F04BF9CDE9CF
:101280000E01149809F046F9CDE90A0108F0C4FAF4
:1012900081F00041CDE90C0100E061E0DDE90E23C1
:1012A00008F0D0FBCDE9100108F0DEFA1490AD484B
:1012B00034384078032803D1149880F0004014900B
:1012C000A8483438806A0021119009F01BFB0BD22A
:1012D000149880F000401490A2483438806A80F05E
:1012E0000041A04834388162DDE9141009F03EFB6A
:1012F0000C90169909F037FC0D9009F00BF90022BB
:101300009B4BCDE90E0108F0F5FDCDE9100108F089
:10131000ABFA0146934803E0D4E0D2E0D0E0CEE05F
:1013200024382B9A40F822101499169809F01EFBC5
:101330000C90159909F01AF90D9009F0EBF80022BC
:101340008B4BCDE90E0108F0D5FDCDE9100108F079
:101350008BFA0146834824382A9A40F82210ADE0DF
:1013600001212B9801FA00F001222A998A401043AA
:101370002099084201D1232011E41E9820F00E008C
:101380001E9078483438C078012829D10020179061
:1013900023E00121179801FA00F02099084218D0A3
:1013A00070482438179950F821000D9009F0B2F8D0
:1013B0004FF066326C4BCDE90E0108F09BFDCDE994
:1013C000100108F051FA014666482438179A40F88F
:1013D00022101798401CC0B2179017980328D8DB2A
:1013E000604824382B9950F8210001461190169836
:1013F00009F0C4FB16905B4824382A9950F8210064
:1014000001461190159809F0B9FB1590DDE915100A
:1014100001F06DF91390534824382A9950F82100AF
:101420001190504824382B9950F8210010901199B0
:1014300001F05DF94B49343988620846806A0146FB
:101440000E90139809F09AFB0F9009F063F821F0C1
:101450000041CDE9100108F007FA1290129809F046
:1014600059F8444A444BCDE9100108F041FE25D219
:10147000129809F04FF800223D4BCDE9100108F019
:1014800037FE01D2212012E436483438806A0B90AE
:1014900009F040F8394A3A4BCDE90C0108F02AFD31
:1014A000CDE91001129809F035F8CDE90E01DDE91A
:1014B000102308F01DFE01D221205CE40EE000BFE5
:1014C00000BF00BF219808B91A2054E425492448D8
:1014D000FFF74AF808B121204DE400BF00BF40F2F9
:1014E00021311E9888431E902C9818B11E9820F424
:1014F000E0501E901E9808B124203CE4194834386E
:10150000006A17491C398861164834388078487059
:1015100014483438C068086112483438C06A1190E1
:101520000846C0681090119909F050F914D00C4881
:101530001C38407A50B10B483438C06A11900848C2
:101540001C38407A1090119903F0F5FC05483438A6
:10155000C06A03491C39C8600248343812E00000F0
:1015600088000020E400002066663940000010403A
:101570000000E03F7B14AE47E17A743FFCA9F1D252
:101580004D62503F90F83000CC4908750846417ACA
:10159000CB48807A81420CD0C848C0681190C848B6
:1015A000807A1090119903F0C6FCC548807AC3492F
:1015B0004872C248017AC248407A814208D0C04885
:1015C000407A1190FEF73FFFBD48407ABB49087250
:1015D000BB480078012804D1B948406A119000F056
:1015E000B9FEB7484079B5490871B548C0788870E8
:1015F0002C9803280DD1B24880794871084640796B
:10160000012803D1AE48C06B086402E00020AB495A
:101610000864AA488179AA48C079814208D0A848BC
:10162000C079A6498871084625A90EC928300EC080
:10163000A3480079A149C870A1480078801E0828F5
:1016400043D2DFE800F0041327142D42333C22A9D3
:10165000289803F087F9994881792898814204D124
:10166000964822A90EC928300EC02EE000BF2C9843
:1016700028B1002293499248343000F051FC0022F6
:10168000904922A800F04CFC8C4822A90EC91C30BD
:101690000EC01AE089491C31062003F063F914E0FA
:1016A00086491C31072003F05DF90EE08349844828
:1016B000D0E90D23C06BC1E90D23C86305E07F4865
:1016C000002141638163C16300BF00BF7C48407853
:1016D0007A49087008460078082876D02C980228A5
:1016E00073D10846007808280BD2DFE800F0040B1D
:1016F00018334E5E6F7F002272497148343000F01B
:101700000FFC83E06D48407811906C4800691090A0
:1017100001466B483430119A00F002FC76E0012358
:10172000DDE92A212998CDE90403CDE902126348B5
:10173000407862490969CDE900106148806A034632
:101740005F4A103202F1240111905C481C3000F015
:1017500010FC5BE00023DDE92A212998CDE9040390
:10176000CDE902125548407854490969CDE9001085
:101770005348806A0346524A103202F12401119004
:101780004E481C3000F0F5FB40E0002000904B4834
:10179000407811904948006900231090014648485C
:1017A0003430119A00F031FE30E0012000904348BF
:1017B000407811904148006900231090014640484C
:1017C0003430119A00F021FE20E028E00020009043
:1017D0003A48407811903948006901231090014639
:1017E00037483430119A00F010FE0FE001200090CD
:1017F0003248407811903148006901231090014629
:101800002F483430119A00F000FE00BF00BF2B4A71
:101810002B48D0E90D13C06BC2E90713506228486A
:10182000007A2649C8710846C079A8B302F000F8CA
:101830002248C079012818D123484078022838D09E
:1018400001201190119880F3108800BF1F48007884
:1018500040F008001D49087000201190119880F395
:10186000108800BF01F0E2FD23E001201349087059
:1018700000200871C8704870887148720872124858
:101880004078022812D00846807925A9119003F0EB
:1018900018F910B9072008E40EE0084825A90EC978
:1018A00028300EC003F0BAFAFEF7B0FD072002F0B0
:1018B00060F800200149C871002013E46C0000208A
:1018C000B0000020000080BF4C000020310000204C
:1018D00010B500221146282006F0A3FE10BD10B559
:1018E0004FF40062FE49042006F0C1FE4FF480521E
:1018F000FB49042006F0BBFE4FF40042F8490420E7
:1019000006F0B5FE0122D102F54806F0C5FE01221F
:101910001103F34806F0C0FE0122D103F04806F09F
:10192000BBFEF04890F8400010F0080F1AD00C23CE
:101930004FF400620B21002006F046FE0C234FF40A
:1019400080521946002006F03FFE0C234FF400425F
:101950000F21002006F038FE00221146282006F054
:101960004FFE01E0FFF7B4FF10BD2DE9F041002666
:101970004FF40061DA4806F09EFE47004FF48051B4
:10198000D74806F098FE47EA80074FF40041D44854
:1019900006F091FE47EAC00000F00E05D14890F82D
:1019A000400010F0400F01D185F00E0575B1002404
:1019B0000AE0204603F025FA284203D00120A04087
:1019C0003043C6B2601CC4B2032CF2DB3046BDE823
:1019D000F08110B54FF4184004F0DDFFC2484078A4
:1019E000012813D0C148007880B9FFF7BEFF68B165
:1019F00000F08AFD012000F085FABC48007840F034
:101A00000300BA490870002000F07CFA10BD2DE9EF
:101A1000F04F91B00746032010904FF000080020CF
:101A20000890B148007810B111B0BDE8F08F0024E3
:101A300046E0204603F0D1F90FA908550CB1012C5E
:101A40000BD1002003F0C9F98346012003F0C5F94A
:101A50004BEA000B0FA800F804B00120A040384268
:101A60002CD0A049243151F8240008F053FD002265
:101A70009F4BCDE9000108F03DFACDE90401404655
:101A800008F048FDCDE90201DDE9042308F030FB50
:101A900003D2404608F03EFD0BE09249243151F854
:101AA000240008F037FD0022914BCDE9040108F035
:101AB00021FACDE9060107F0D7FE8046601CC4B2CA
:101AC000032CB6DB01258748806C0B9000BF86494C
:101AD000091D0CA804F07CFC0026002009900024BD
:101AE00045E00120A04038423FD00998401CC0B2D8
:101AF00009905CB97C48001D04F028FC82467A48B5
:101B0000C0F804A0CAF1000181600FE0012C0AD1E5
:101B10007548001D04F022FC82467348C0F804A0FA
:101B2000C0F808A002E000216F48C1606D4890F83D
:101B300041000121A14008420AD02DB188F00040A7
:101B40000CA941F824000DE00CA840F8248009E01D
:101B50001DB10CA840F8248004E088F000400CA9D6
:101B600041F824000FA8005D0643601CC4B2032C9A
:101B7000B7DB099808F06EF9CDE9000107F04CFEDB
:101B8000CDE904010B9808F0C5FCCDE90201DDE9BF
:101B9000042308F0AFF9CDE9060107F065FE0B90CC
:101BA0005148467701F062FA00220CA80B9900F028
:101BB000E7FE03F09DFC03F0DFF900BFFDB1FFF786
:101BC000D4FE0A90002416E00FA8005D304210D029
:101BD0000120A0400A9908420BD0022C03D19DF8A5
:101BE0003E00864305E09DF83C009DF83D1008430B
:101BF0008643601CC4B2032CE6DB3B48467703F007
:101C000077FC3C48007810F0340F21D03948007838
:101C100010F0300F0AD11DB9FFF7A7FE384205D1E9
:101C20004DB13448007810F0040F04D000F06CFC83
:101C300001F0FCFBF8E6012000F064F92D48007883
:101C400020F004002B490870002000F05BF902E04E
:101C500016F01C0FB2D100BF03F0BDFB00F02CFE4C
:101C60002049B1F84C0004F077FD85F0010595B1ED
:101C70001C49086D08F04EFC00221F4BCDE9040101
:101C800008F038F9CDE9060107F0EEFD8046154869
:101C9000406C0B9004E01348D0F85080806C0B909F
:101CA0001098411EC9B2109100283FF710AF0024D0
:101CB000D0E00120A04038427DD00A4890F8410091
:101CC0000121A14008425AD0064A116D243252F82F
:101CD000240008F04BFC0790024850F824100DE057
:101CE00000080140340500204C0000203200002094
:101CF0000000F8BF3100002000001440079808F0F1
:101D000035FE8346002108F0FDFE1BD27F4A116D8F
:101D1000243252F8240008F029FC03907B4850F844
:101D20002410039808F022FE834608F0F3FB0022FB
:101D3000774BCDE9040107F0C9FDCDE9060108F0B4
:101D400015F81AE0714A116D243252F8240008F097
:101D50000DFC03906D4850F82410039808F006FE1F
:101D6000834608F0D7FB0022694BCDE9040108F057
:101D7000E7FACDE9060107F0F9FF814642E0634842
:101D8000006D80F0004B614850F82410584608F070
:101D9000EDFD0021079008F0B5FE1AD25B48006DFA
:101DA00080F000400390594850F82410039808F040
:101DB000DDFD834600E04BE008F0ACFB0022544B15
:101DC000CDE9040107F082FDCDE9060107F0CEFF61
:101DD00017E04E48006D80F0004003904B4850F8EB
:101DE0002410039808F0C2FD834608F093FB0022FC
:101DF000474BCDE9040108F0A3FACDE9060107F04D
:101E0000B5FF81467CB9434804F0A0FA08900898D1
:101E100048444049091F48600898A9EB00013D4823
:101E2000001F816014E0012C0FD13A4804F096FAAB
:101E30000890089848443749091F48600898A0EB63
:101E400009013448001F816002E0324840F82490C4
:101E5000601CC4B2032CFFF62CAF01F007F900BFE1
:101E6000E2E570B50546002448E055F8240000215D
:101E700008F048FE08D3254A243252F8241055F8B9
:101E8000240008F03FFD03D201202249091FC87039
:101E90002048001FC07870B31E48001F40780828F3
:101EA00018D1012000F02EF81B48007840F00800FF
:101EB00019490870002000F025F800BF01F0B6FABB
:101EC0001448001F007800B170BD1248001F407810
:101ED0000028F3D100F018FB012000F013F80F48A0
:101EE000007840F005000D490870002000F00AF865
:101EF00001F09CFAE8E7FFE7601CC4B2032CB4DBF6
:101F000000BFE1E780F3108870470000340500202F
:101F10000000E03F5000002031000020320000208F
:101F200070B504460D461646F74890F8400010F08C
:101F3000200F02D02046FFF794FFF4484078022893
:101F400000D170BD00BF01F071FAF048007800B117
:101F5000F7E700F00BFD10B101F0E9FB00E000E055
:101F6000F1E700BF32462946204600F009FD00BFD8
:101F7000E7E72DE9FF4F9DB0054688461446DDE9A9
:101F80002D792C9E54F8261055F8260008F0EEFA0C
:101F90001C9054F8271055F8270008F0E7FA1B901A
:101FA00054F8260080F000401A9054F8270080F082
:101FB0000040199058F826001C9908F0DFFD189091
:101FC00058F827001B9908F0D9FD179000200F90B2
:101FD0001799199808F0CAFC069018991A9808F0F1
:101FE000C5FC0590069908F0C1FA079008F092FA2E
:101FF000CDE90A01DDE9181008F0B8FC0690179940
:102000001A9808F0B3FC0590069908F0B7FD079000
:1020100008F080FACDE90801DDE90A2307F0B2F9FA
:10202000CDE90C0107F020FC0E902F98C0B10E985E
:1020300008F070FAB64AB74BCDE90C0108F058F831
:1020400026D80E9808F066FAB34AB44BCDE90A01D7
:1020500008F076F9CDE90C0107F006FC0E9017E0C8
:102060000E9808F057FAAA4AAD4BCDE90C0107F0DB
:1020700005FF0DD80E9808F04DFAA74AA74BCDE9F9
:102080000A0107F023FCCDE90C0107F0EDFB0E90EF
:102090004FF08040209908F069FC01909A48C16B8C
:1020A000019808F06BFD02909748C16B029808F008
:1020B0005DFC039008F02EFACDE9040107F0ACFBBB
:1020C000CDE90801209808F025FACDE904010E9821
:1020D00008F020FA0022934BCDE9000107F00AFF37
:1020E000CDE90201DDE9042307F004FF21F00041FE
:1020F000CDE90601DDE9082307F0A4FCCDE90A01DA
:1021000007F0C4FACDE90C0107F060FE1FFA80FA6F
:10211000BAF1000F7DD02B9838B1504608F0DEFBA5
:102120000D902A9908F022FC2A90504608F0D6FB20
:1021300001460D900E9808F087FA1690504608F068
:10214000CDFB0D9055F8291058F8290008F016FD20
:102150000C900D9908F078FA15901699084608F039
:1021600005FC099008F0D6F900224FF08043CDE934
:102170000A0107F0F3FFCDE90C0107F075FB14909D
:10218000149808F0C7F90022674BCDE9060107F063
:102190009DFBCDE90A01169808F0BCF9634A644B2F
:1021A000CDE9060107F0A6FECDE90801DDE90A2325
:1021B00007F0A0FECDE90C0107F056FB1390149830
:1021C00008F0A8F90022574BCDE90A0107F092FE6A
:1021D000CDE90C0107F048FB14904FF0010BADE086
:1021E0000F980C2824DA1499199808F0BFFB0D9069
:1021F00013991A9808F0BAFB0C900D9908F0B6F9EB
:1022000010901399199808F0B1FB0D9014991A9831
:1022100000E096E008F0AAFB0C900D9908F0AEFCE7
:102220001A90109819900F98401CC0B20F904DE072
:10223000584608F053FB0890169908F097FB099050
:1022400008F068F9CDE90A0107F0CAF9CDE90C01F7
:1022500007F00AFB1190584608F040FB08901699C9
:1022600008F084FB099008F055F9CDE90A0107F060
:102270007BFACDE90C0107F0F7FA129054F8270029
:10228000129908F073FB0D9054F8260080F000407E
:102290000B90119908F06AFB0C900D9908F066F903
:1022A0001A9054F82700119908F060FB0D9054F82B
:1022B000260080F000400B90129908F057FB0C901C
:1022C0000D9908F05BFC199000200F901A991C984A
:1022D00008F04CF945F8260019991B9808F046F9C2
:1022E00045F8270055F82900159908F03FF945F8F9
:1022F00029002846DDE92A12FFF712FE034800787C
:10230000C0B121B0BDE8F08F340500204C000020A2
:102310008DEDB5A0F7C6A0BE182D4454FB21194081
:10232000F7C6A03E0000E03F000010404BDA7D5CA5
:102330005555C53F0BF101001FFA80FBD345FFF651
:102340004FAF4046DDE92A12FFF7EAFD00BF21B09A
:10235000BDE8F08F2DE9FC5F81468C48407802286B
:1023600001D1BDE8FC9F8A49484608F0FFFA824641
:1023700008F0D0F8074607F089F9054607F026FD72
:1023800084B201F055FA322104FB01F008F08EFA14
:1023900080490190484608F0E9FA0090019908F058
:1023A000EDFB834608F0B6F8074607F06FF90546DF
:1023B00007F00CFD1FFA80FA504604F0CDF908E052
:1023C00001F034F87148007800B1CAE7322004F017
:1023D000C3F9201EA4F101018CB2F1DC00BFC0E7FB
:1023E00010B5FFF775FA0420FFF711FB0320FFF784
:1023F0000EFB01F01BF86548007800B110BDFEF738
:10240000ACF8FFF76CFA00BFF8E72DE9F04105469C
:102410000E4617461C46DDF818805C4840780228B6
:1024200001D1BDE8F08101F003FA00205749087797
:10243000204600F0B7FF00F0CBFF68B1012000F0AC
:10244000A2F85548007840F0100053490870002069
:1024500000F099F800F0EAFF4C48007800B1E0E79E
:102460003A4631462846FFF75BFD01204B4908708C
:1024700000F089F84A48007840F0020048490870A6
:10248000002000F080F800BF00F0D0FF3F48007847
:1024900000B1C6E73D4840780028F5D13F480078B4
:1024A000012816D1B8F1000F06D0384803461B1D8D
:1024B0000ECB10300EC00FE0012000F064F836485B
:1024C000007840F0100034490870002000F05BF8FC
:1024D00002E001202D49087700203049087000F003
:1024E000A5FF2A48007800B19BE702F074FF00F0D6
:1024F000E3F900F0BBFD2549091D284603F068FFFC
:1025000001F0B5FD00BF8CE710B52548007810F04C
:10251000100F37D1012000F036F82148007840F044
:1025200010001F490870002000F02DF802F076FC22
:10253000FDF76CFF1548407810F00C0F03D11348DD
:10254000807801281ED11148407804280CD1012040
:1025500000F019F81048007840F020000E4908708B
:10256000002000F010F80BE0012000F00CF80A4801
:10257000007840F0080008490870002000F003F8D7
:1025800002F021FD10BD80F3108870474C00002040
:102590000000A04100007A443200002030000020FA
:1025A000310000202DE9F04F87B0804689469246E1
:1025B00099F8000000EB08040020059000258346F0
:1025C000049014F8016B06902D2E04D10120069082
:1025D00014F8016B03E02B2E01D114F8016B0020DD
:1025E000059000258346049025E0A6F13000C6B290
:1025F000092E16DC0BF1010000F0FF0BBBF1080FF8
:102600000ADC049808B1681E45B2059800EB80000A
:1026100006EB400005900CE0049850B9681C45B2E8
:1026200007E0FE2E04D1049810B90120049000E0C8
:1026300002E014F8016BD8E700BFBBF1000F03D133
:10264000002007B0BDE8F08F059808F047F907466D
:102650000021384608F0BAF839D00FE0384607F0C4
:1026600059FF314A314BCDE9000107F043FCCDE978
:10267000020107F0F9F80746A81C45B215F1020F50
:10268000ECDD002D0EDA384607F044FF284A294BCE
:10269000CDE9000107F02EFCCDE9020107F0E4F8D6
:1026A000074614E0002D12DD00BF384607F032FF68
:1026B0000022214BCDE9000107F01CFCCDE902010D
:1026C00007F0D2F80746681E40B2051EEDDC0698FA
:1026D00020B187F00040CAF8000001E0CAF800709D
:1026E000A4EB0800401E89F800000120A9E72DE9AD
:1026F000F84F044689464946484608F037F983466C
:102700002146204608F032F95946009007F02EFF86
:10271000824607F0FFFE074607F07EF8054607F001
:10272000A3F8BDE8F88F00007B14AE47E17A843F40
:102730009A9999999999B93F00002440411CC8B2CF
:10274000122800D10020704700B91220411EC8B2E3
:1027500070472DE9F047FE480078FFF7F5FF054682
:1027600005EB450000EBC500FA4901EB8004FA488F
:102770000078854201D1BDE8F0874FF08040616A62
:1027800008F0F4F88146A16A08F0F0F88046A169E3
:1027900008F0B8F901D2A06908E04FF08040616A02
:1027A00008F0E4F88046A16A08F0E0F86061284685
:1027B000FFF7CAFF0546E8480078854206D1E7489A
:1027C0000078854235D102F080FE32E02DE02646C9
:1027D00005EB450000EBC500DE4901EB800428460F
:1027E000FFF7B2FF0546DD480078854201D102F0CF
:1027F0006CFED4E9050107F0E9FF16D04FF08040E8
:10280000616A08F0B3F88146A16A08F0AFF8804623
:10281000716907F0ABFE07463846A16908F072F807
:1028200001D2676101E0A0696061CB480078854210
:10283000CDD1C948007800EB400101EBC000C5498B
:1028400001EB8006C4480078FFF778FF05462DE0CD
:10285000344605EB450000EBC500BE4901EB8006A0
:102860007169606908F04EF815D24FF08040616AD6
:1028700008F07CF88146A16A08F078F88046616922
:1028800007F074FE07463846716908F03BF802D23B
:102890007761B1480570D6E9050107F097FF01D1CE
:1028A000AD4805702846FFF749FF0546A84800785F
:1028B0008542CDD100BF5EE710B51C21A84806F0C7
:1028C000B3F80020A5490870A14908700120A54966
:1028D00008700020A049087010BD00B59C48007821
:1028E0009E49097888420FD09C480078FFF726FF60
:1028F00002469A48007898490978884201D196485A
:1029000002709648027000BF00BD9148007893495C
:102910000978884201D1002070479048007800EB88
:10292000400101EBC0008B4901EB8000F4E72DE989
:10293000F0418A480078FFF701FF04468448007898
:10294000844202D10020BDE8F08104EB440101EB98
:10295000C401804A02EB8101486907F0DBFD0746AC
:1029600006F05AFF054606F07FFFECE77B4800784B
:102970007C490978884201D1012070470020FCE79A
:1029800007B59AB07248007800EB400101EBC00037
:10299000704901EB80000C9000210C9801610C98AB
:1029A00081620C98017070490C9841626F48006810
:1029B0000A901A98006809900A9907F0D7FF002139
:1029C0000B9008F09FF816D26848006806901A9895
:1029D00000680590069907F0C9FF079007F09AFD77
:1029E0000022634BCDE9080106F070FFCDE90A0132
:1029F00007F0BCF915E05D48006806901A98006879
:102A00000590069907F0B2FF079007F083FD0022BA
:102A1000574BCDE9080107F093FCCDE90A0107F017
:102A2000A5F91690514840680A901A984068099094
:102A30000A9907F09BFF00210B9008F063F816D26B
:102A40004A48406806901A9840680590069907F031
:102A50008DFF079007F05EFD0022454BCDE9080190
:102A600006F034FFCDE90A0107F080F915E03F4890
:102A7000406806901A9840680590069907F076FF1E
:102A8000079007F047FD0022394BCDE9080107F018
:102A900057FCCDE90A0107F069F9179030491698FB
:102AA0000968A0EB01002E4A17995268A1EB0201B8
:102AB00040180B9001D40B9801E00B9840420C9900
:102AC0004860274916980968A0EB0101244A179825
:102AD0005268A0EB0200081A0B9001D40B9901E098
:102AE0000B9841420C98816000201190F7E01198FA
:102AF000002873D01198012870D01C49119851F802
:102B000020000A9011991A9850F8210009900A990A
:102B100007F02CFF00210B9007F0F4FF2DD2134992
:102B2000119851F82000069011991A9850F8210038
:102B30000590069907F01AFF079007F0EBFC0022BA
:102B40000B4BCDE9080106F0C1FECDE90A0111E009
:102B500015000020F00000201700002014000020C5
:102B600008040020160000209976967E3405002087
:102B70000000E03F07F0FAF819E0F849119851F821
:102B80002000069011991A9850F821000590069996
:102B900007F0ECFE079007F0BDFC0022F04BCDE9FA
:102BA000080107F0CDFBCDE90A0107F0DFF816AA0E
:102BB000119942F8210016A9119851F82010E94AFC
:102BC00052F82000081A0B9001D40B9901E00B98E1
:102BD00041420C98001D119A40F822100C9802698D
:102BE000001D119950F82100824202D90C98006909
:102BF00004E00C98001D119950F821000C9908610F
:102C00001198B8B9D74916980968401AD54A179942
:102C10005268891A08440A9007F048FECF490B9081
:102C2000119851F8200001460A900B9807F00CFD0E
:102C3000129030E01198012817D1CA4916980968F6
:102C4000401AC84A17995268891A401A0A9007F020
:102C50002DFEC2490B90119851F8200001460A90B0
:102C60000B9807F0F1FC129015E016A9119851F895
:102C70002010BC4A52F82000081A0A9007F016FEED
:102C8000B6490B90119851F8200001460A900B9814
:102C900007F0DAFC129013AADDE9111042F82100C6
:102CA0000021129807F02EFE07D2119802F09FF82B
:102CB0000C99097808430C9908701299084607F096
:102CC00055FE0B900C98806A01460A900B9807F00D
:102CD0004DFC0C9988621198401CC0B2119011985B
:102CE0000328FFF604AF0C98806A079007F012FCE7
:102CF000CDE9080106F090FDCDE90A0106F0B4FD2A
:102D00000C9988620C98006908B91DB000BD0021BB
:102D10001B9807F0F7FD02D293481B9009E01C981E
:102D200038B10C98806A01460B901B9807F01EFE84
:102D30001B901B9807F0EEFB00228C4BCDE90A019B
:102D400007F09CF802D24FF07E501B900C98806ADE
:102D5000079007F0DFFB02460B46CDE90801002093
:102D6000824906F06FFECDE90A0106F07DFD0F9065
:102D700000200E9011907BE013A9119851F82000CB
:102D800000210B9007F022FD6ED013A9119851F885
:102D900020000B900F9907F0E9FD13AA119942F852
:102DA000210013A9119851F82000079007F0B2FBF9
:102DB00002460B46CDE9080100206C4906F042FEB0
:102DC00021F00041CDE90A0106F04EFD1090634864
:102DD0000C30119950F821000A90109907F0C6FDA7
:102DE0000B901B9907F08EFE01D21B9808E05B4800
:102DF0000C30119950F821000B90109907F0B6FD96
:102E00001B9056481830119950F821000A901099DB
:102E100007F0ACFD0B900C98406A01460A900B98A5
:102E200007F070FE02D20C98406A08E04B48183058
:102E3000119950F821000B90109907F097FD0C990B
:102E4000486213A9119851F820000A9045480C30A7
:102E5000119950F8210009900A9907F087FD0B900D
:102E60000E9907F080FE0E901198401CC0B2119090
:102E70001198032880DB3E4800783E490978884253
:102E800005D100210C9841610C98C1619FE00E981A
:102E900007F040FB384A354BDB1ECDE90A0107F04D
:102EA00027F903D200210C98C16190E00E9807F039
:102EB00031FB314A314BCDE9080107F019F903D252
:102EC0000E9807F027FB01E02B482C49CDE90A01B9
:102ED00006F0CAFC0E900E9807F01CFB0022234B54
:102EE000CDE9040107F03AF900221D4BCDE90601B6
:102EF00007F000F8CDE9080106F08EFCCDE90A01E3
:102F000006F0B2FC0D900D9807F004FB0022174B61
:102F1000CDE9020107F022F9CDE906010F48806BE7
:102F200001900C98406A0090019907F01FFD0290F3
:102F30000D9907F01BFD039007F0ECFACDE90401B1
:102F4000DDE9062306F07EFD00221346CDE90801E7
:102F500006F094FF14D20020014632E03405002030
:102F60000000E03F080400209976967E0000F03FC4
:102F70001500002014000020E90B21E7FDFFEFBF42
:102F80000D9807F0C7FA0022574BCDE9040107F06E
:102F9000E5F8CDE908015548806B03900C98406A2C
:102FA0000290039907F0E2FC04900D9907F0DEFC13
:102FB000059007F0AFFACDE90601DDE9082306F038
:102FC00041FDCDE90A0106F04FFC0C99C8611B993F
:102FD000084607F0CBFC0C990862454880690A90C6
:102FE0000C98006A09900A9907F08CFC02D20C98A0
:102FF000006A01E03E4880690B900C98C0690A9015
:103000000B9907F07FFC02D20C98C0690EE038489B
:1030100080690B900C98006A0A900B9907F072FC7B
:1030200002D20C98006A01E0314880690C998861ED
:103030002F4813A90EC90C300EC00C98006A2C49F9
:1030400088610846DDE91631189AC0E900318260CE
:10305000284800782849087008460078FFF76EFB7A
:1030600024490870FFF775FB00BF4EE610B5002439
:1030700016E02CB9214803F071F91D4908600DE0F4
:10308000012C05D11D4803F061F91949486005E09C
:103090001A4850F82400164941F82400601CC4B2B4
:1030A000032CE6DB10BD14480078154909788842E6
:1030B00006DB1148007812490978401AC0B27047FF
:1030C0000F4800780C490978401AC0F11200C0B2CC
:1030D000F5E710B502F0F9F90948007809490870D8
:1030E000FFF737FB10BD00000000F03F3405002063
:1030F00008040020160000201500002050000020C9
:10310000140000201700002010B5044603E014F856
:10311000010B01F03FFB20780028F8D110BD10B55D
:1031200004462046FFF7F0FF10BDFEB505460E46EB
:10313000174600240BE095FBF6F006FB1050C0B2DA
:103140000DF8040095FBF6F0C5B2601CC4B2BC4299
:10315000F1DB08E0611E1DF801103031C8B201F04A
:1031600019FB601EC4B2002CF4DCFEBD10B5044691
:10317000082202212046FFF7D8FF10BD70B5054692
:103180000A2D01DA012404E0642D01DA022400E0B2
:10319000032422460A212846FFF7C7FF70BD3EB52B
:1031A000044600251CB9302001F0F4FA3EBD0CE0C5
:1031B0000A20B4FBF0F100FB11422846691CCDB295
:1031C0000DF800200A20B4FBF0F4002CF0D108E048
:1031D000691E1DF801103031C8B201F0DBFA681E1B
:1031E000C5B2002DF4DC00BFE0E710B50446002CAA
:1031F00006DA2D2001F0CEFA6042FFF7D0FF02E0A0
:103200002046FFF7CCFF10BD2DE9F04786B082467F
:103210000D462E460024504607F00CFB8146002147
:10322000504607F06FFB04D22D2001F0B3FA8AF06C
:10323000004A2E4606E04F49504607F097FB82466B
:10324000B01EC6B2022EF6DA26B14B49504607F040
:103250008DFB8246504607F05DF907460022474B3A
:1032600006F034FBCDE9000106F0FEFA82460024A8
:10327000504607F0DFFA81462E2002A9485511E09A
:10328000AC4201D1601CC4B20A20B9FBF0F100FBD2
:10329000119030302146621CD4B202AA50540A2048
:1032A000B9FBF0F9B9F1000FEAD105E03022204670
:1032B000611CCCB202A90A54AC42F7DBAC4207D184
:1032C000601CC4B230222046611CCCB202A90A5450
:1032D00006E0611E02AA505C01F05CFA601EC4B2F6
:1032E000002CF6DC06B0BDE8F0872DE9F047044677
:1032F000234890F8400010F0010F0FD0204607F04F
:1033000009F907461F4A204B06F0F4FD054606F072
:10331000ABFA81460421FFF777FF03E00321204643
:10332000FFF772FFBDE8F0872DE9F0470446144827
:1033300090F8400010F0010F0FD0204607F0EAF897
:103340000746104A104B06F0D5FD054606F08CFAEC
:1033500081460121FFF758FF03E000212046FFF7D7
:1033600053FFBDE8F08710B5044603212046FFF760
:103370004BFF10BD0000C842000020410000E03FAC
:10338000340500206568E1575128A43F10B510228C
:103390002049042005F06BF9012210211D4805F099
:1033A0007BF910BD00211C4A11701C4991F8401096
:1033B00011F0800F04D11146097881F001011170DC
:1033C00028B11549097881F00101134A117070473D
:1033D00010B510210F4805F06EF90F4909784840E3
:1033E00010BD10B50E480078012811D1FFF7F0FF8D
:1033F00070B100200A4908700A4803461B1D0ECB15
:1034000010300EC00848007840F0400006490870AF
:1034100010BD000000080140180000203405002005
:10342000300000204C0000203100002010B500BF0B
:10343000FA480478002C45D00120F949487014F06E
:10344000020F02D000F06CFA1AE014F0040F03D05F
:10345000022000F065FA13E014F0080F03D00320F7
:1034600000F05EFA0CE014F0100F03D0042000F01E
:1034700057FA05E014F0200F02D0052000F050FAB2
:1034800014F0010F14D0012000F073FA012000F0B5
:10349000E3F9E448007820F01000E24908700020C9
:1034A00000F0DAF900BFDF48007810F0100FFAD012
:1034B000012000F0D1F9D94800780020D7490870E0
:1034C00000F0CAF9D7480478002C7DD014F0100F12
:1034D00003D00120D249087010BD14F0010F0DD0A7
:1034E00001F018F8012000F0B7F9CE48007820F07C
:1034F0000100CC490870002000F0AEF914F0680F0C
:1035000052D0C748407820B1C548407810F07C0FB1
:103510003ED0C3484078082804D101F0D6FF0120EE
:10352000BF498870BE48407810B90220BC498870F5
:1035300014F0400F0CD0BA484078082802D140203F
:10354000B7494870B648807840F00800B4498870A0
:1035500014F0080F07D0B248407810F0200F02D1C5
:103560001020AF49487014F0200F11D0062000F051
:1035700000FAAB48807810F0020F01D044F0040448
:10358000A748807840F00400A54988702020487042
:10359000012000F061F9A348007820F06800A149FB
:1035A0000870002000F058F914F0020F4FD014F00A
:1035B000680F40D19A48407858B19948407810F047
:1035C000500F38D0964800E06CE0807810F0020F81
:1035D00031D09348807810F0040F16D09248407A8A
:1035E00040B1914AD168507A01F03CFC4FF47A60C6
:1035F00003F0B2F88C48007A38B18B49087AFCF7AE
:1036000015FF4FF47A7003F0A7F8FFF77EF960B169
:103610008348807810F0080F07D10820804948704F
:1036200001F066FF01F0A8FC02E000207C49487030
:1036300000207B498870012000F00EF9794800785D
:1036400020F0020077490870002000F005F914F01E
:10365000040F27D07248407810F0300F12D0704815
:10366000C07878B96E48807810F0040F03D001F06C
:10367000D5FBFCF7CBFE6A48807840F00200684931
:10368000887003E00020664988704870012000F0CF
:10369000E3F86448007820F00400624908700020D4
:1036A00000F0DAF85E48407810F07C0F01D001F0AD
:1036B0001FFF5B48407820280AD15948807810F0D5
:1036C000020F05D002F079FC10B91020544948705F
:1036D0005348807800287FF4ABAE00BFFCE670B59D
:1036E0000446FFF7A3FE4E48007800B170BD207875
:1036F00018B9002000F0B6F817E02078242806D189
:10370000204602F079FC054600F0ACF80DE0444894
:103710004078012803D1092000F0A4F805E02046F4
:10372000FCF736FF054600F09DF800BFDEE710B558
:10373000012000F091F83B48007840F00200394940
:103740000870002000F088F810BD70B50026002534
:1037500000F042F932484078012803D1022000F0FD
:1037600008F911E002F029FC40B12E48007840F041
:1037700020002C490870FFF759FE02E0002028497C
:1037800048702A4802F01BFC00BF39E00A2C01D027
:103790000D2C08D10020254948550846FFF79FFF0A
:1037A000002600252CE02EB1292C29D1012E27D16D
:1037B000002625E0202C23DD2F2C21D0282C01D120
:1037C00001261DE03B2C01D1022619E04F2D05DB1F
:1037D0000B2000F047F80026002511E0612C0ADBE1
:1037E0007A2C08DCA4F12000C2B22846691CCDB2B4
:1037F0000E490A5404E02846691CCDB20B490C540A
:1038000000F0EAFF0446FF28C0D1FFF790FFFFF762
:103810000DFE034800780028B7D070BD32000020AC
:103820004C000020310000206C0000202404002007
:1038300010B5FFF77CFF00BFFFF7F8FD08480078E0
:1038400000B110BDFFF761F80028F5D104484078B9
:103850000828F1D000BFF4E780F31088704700001B
:103860004C00002010B504461CB9B1A0FFF757FC6E
:1038700055E0B1A0FFF753FC172C45D2DFE804F068
:10388000440C1014181C2024282C30344444444484
:10389000444444443C384000A9A0FFF740FC3AE0CF
:1038A000ADA0FFF73CFC36E0B0A0FFF738FC32E0FB
:1038B000B3A0FFF734FC2EE0B4A0FFF730FC2AE001
:1038C000B7A0FFF72CFC26E0B9A0FFF728FC22E008
:1038D000C0A0FFF724FC1EE0C1A0FFF720FC1AE007
:1038E000C2A0FFF71CFC16E0C5A0FFF718FC12E011
:1038F000C7A0FFF714FC0EE0CBA0FFF710FC0AE016
:10390000CEA0FFF70CFC06E0D1A0FFF708FC204694
:10391000FFF734FC00BF00BFD2A0FFF700FC10BDD2
:1039200010B50446D0A0FFF7FAFB062C18D2DFE84A
:1039300004F01703070B0F13CDA0FFF7F0FB0FE008
:10394000CEA0FFF7ECFB0BE0CFA0FFF7E8FB07E012
:10395000D2A0FFF7E4FB03E0D3A0FFF7E0FB00BF3A
:1039600000BFC0A0FFF7DBFB4FF4FA7002F0F4FEDB
:1039700010BD10B50446CFA0FFF7D1FB092C26D20D
:10398000DFE804F02505090D1115191D2100CAA055
:10399000FFF7C5FB1BE0CDA0FFF7C1FB17E0D0A0F0
:1039A000FFF7BDFB13E0D3A0FFF7B9FB0FE0D3A0F7
:1039B000FFF7B5FB0BE0D4A0FFF7B1FB07E0D5A004
:1039C000FFF7ADFB03E0D5A0FFF7A9FB00BF00BFE9
:1039D000D7A0FFF7A4FB10BD10B5D6A0FFF79FFB43
:1039E00010BD10B5DB48FFF79AFB10BD2DE9F04183
:1039F0006426D9A0FFF793FBD84991F83000FFF770
:103A0000BDFBD7A0FFF78BFBD44991F83300FFF73C
:103A1000B5FBDAA0FFF783FBD04991F83100FFF73F
:103A2000ADFBDEA0FFF77BFBCC4991F83100FFF73F
:103A30009DFBE1A0FFF773FBC84991F83200FFF747
:103A40009DFBDFA0FFF76BFBC44991F83200FFF745
:103A50008DFBE1A0FFF763FBC04991F84010C1F373
:103A60008000FFF78BFBDEA0FFF759FBBB4991F805
:103A70004010C1F38010FFF781FBE2A0FFF74FFB7E
:103A8000B64991F84010C809FFF778FBE5A0FFF7A9
:103A900046FBB24991F83400FFF770FBE9A0FFF74D
:103AA0003EFBAE4991F83400FFF760FBEBA0FFF757
:103AB00036FBAA49886BFFF756FCEAA0FFF72FFBFD
:103AC000A649C86BFFF74FFCEEA0FFF728FBA34900
:103AD00091F8401001F00100FFF750FBF0A0FFF754
:103AE0001EFB9E4991F84010C1F34010FFF746FBC2
:103AF000F3A0FFF714FB994991F84010C1F3C000FF
:103B0000FFF73CFBF5A0FFF70AFB944991F8401042
:103B1000C1F30010FFF732FBF7A0FFF700FB8F495E
:103B200091F84100FFF72AFBFAA0FFF7F8FAFFE14E
:103B30006F6B0D0A000000006572726F723A200010
:103B4000457870656374656420636F6D6D616E6444
:103B5000206C657474657200426164206E756D62DC
:103B6000657220666F726D6174000000496E766147
:103B70006C69642073746174656D656E7400000017
:103B800056616C7565203C203000000053657474EC
:103B9000696E672064697361626C6564000000008F
:103BA00056616C7565203C20332075736563000099
:103BB000454550524F4D2072656164206661696CC5
:103BC0002E205573696E672064656661756C747329
:103BD000000000004E6F742069646C6500000000F6
:103BE000416C61726D206C6F636B0000486F6D6992
:103BF0006E67206E6F7420656E61626C6564000094
:103C00004C696E65206F766572666C6F7700000098
:103C10004D6F64616C2067726F75702076696F6C90
:103C20006174696F6E000000556E737570706F720D
:103C300074656420636F6D6D616E6400556E6465BC
:103C400066696E65642066656564207261746500EE
:103C5000496E76616C69642067636F6465204944CE
:103C60003A0000000D0A0000414C41524D3A20003C
:103C700048617264206C696D69740000536F6674EA
:103C8000206C696D6974000041626F727420647504
:103C900072696E67206379636C65000050726F62B1
:103CA00065206661696C0000486F6D696E6720660B
:103CB00061696C005B000000526573657420746F6D
:103CC00020636F6E74696E756500000027244827B5
:103CD0007C2724582720746F20756E6C6F636B00EF
:103CE00043617574696F6E3A20556E6C6F636B65D6
:103CF00064000000456E61626C6564004469736134
:103D0000626C656400000000436865636B20446F6B
:103D10006F72000050676D20456E640052657374C9
:103D20006F72696E672064656661756C74730000FC
:103D30005D0D0A000D0A4772626C20302E396A2030
:103D40005B27242720666F722068656C705D0D0A02
:103D50000000000058AD000824303D00340500206C
:103D60002028737465702070756C73652C207573D2
:103D70006563290D0A24313D00000000202873747A
:103D800065702069646C652064656C61792C206DB8
:103D9000736563290D0A24323D00000020287374E6
:103DA000657020706F727420696E76657274206D14
:103DB00061736B3A00000000290D0A24333D0000B6
:103DC000202864697220706F727420696E76657243
:103DD00074206D61736B3A00290D0A24343D000094
:103DE00020287374657020656E61626C6520696E51
:103DF000766572742C20626F6F6C290D0A24353D34
:103E00000000000020286C696D69742070696E7371
:103E100020696E766572742C20626F6F6C290D0AB2
:103E200024363D00202870726F62652070696E2014
:103E3000696E766572742C20626F6F6C290D0A248E
:103E400031303D0020287374617475732072657081
:103E50006F7274206D61736B3A000000290D0A24A3
:103E600031313D0020286A756E6374696F6E20647D
:103E70006576696174696F6E2C206D6D290D0A2459
:103E800031323D00202861726320746F6C6572616D
:103E90006E63652C206D6D290D0A2431333D0000C1
:103EA00020287265706F727420696E636865732C68
:103EB00020626F6F6C290D0A2432303D0000000033
:103EC0002028736F6674206C696D6974732C20628E
:103ED0006F6F6C290D0A2432313D00002028686183
:103EE0007264206C696D6974732C20626F6F6C2929
:103EF0000D0A2432323D00002028686F6D696E671C
:103F0000206379636C652C20626F6F6C290D0A2425
:103F100032333D002028686F6D696E6720646972D6
:103F200020696E76657274206D61736B3A000000D3
:103F3000EA4991F84100FFF719F9E9A0FFF7EFF816
:103F4000E649486CFFF70FFAE7A0FFF7E8F8E34906
:103F5000886CFFF708FAECA0FFF7E1F8DF4991F869
:103F60004C00FFF70BF9F0A0FFF7D9F8DB49086D1B
:103F7000FFF7F9F9F4A0FFF7D2F800BF002572E0CF
:103F8000002469E0F7A0FFF7CAF83119C8B2FFF7BB
:103F9000F5F8AFF2FC10FFF7C2F835B1012D0AD0E9
:103FA000022D0FD0032D22D117E0CC4951F8240067
:103FB000FFF7D9F91BE0C9490C3151F82400FFF78C
:103FC000D2F914E0C549183151F82400E64906F049
:103FD0003BFB0746FFF7C7F909E0C048243050F81B
:103FE000240080F000473846FFF7BDF900BF00BF4E
:103FF000DEA0FFF794F824B1012C06D0022C0CD1DE
:1040000007E0DBA0FFF78BF807E0DAA0FFF787F8FF
:1040100003E0D9A0FFF783F800BF00BF35B1012D41
:1040200008D0022D0AD0032D10D10BE0D3A0FFF74A
:1040300076F80BE0D4A0FFF772F807E0D7A0FFF7FF
:104040006EF803E0DAA0FFF76AF800BF00BFDCA05B
:10405000FFF765F8601CC4B2032C93DB06F10A007D
:10406000C6B2681CC5B2042D8ADBBDE8F0813EB53E
:10407000D4A0FFF754F8002410E02146D34802F002
:1040800075F94DF824005DF82400FFF72EF9022C95
:1040900002DACFA0FFF743F8601CC4B2032CECDBBC
:1040A000C9A0FFF73CF8C9491039087FFFF766F847
:1040B000AFF28430FFF733F83EBD3EB5002538E05F
:1040C0006946284600F0FDFC18B90720FFF7CAFB37
:1040D0003EBDC0A0FFF723F8062D02D0072D08D162
:1040E00003E0BDA0FFF71BF809E0BCA0FFF717F83D
:1040F00005E005F13601C8B2FFF740F800BF00BF88
:10410000B1A0FFF70CF800240FE05DF82400FFF7E2
:10411000ECF8022C03DAAEA0FFF701F803E0AFF2EF
:10412000F030FEF7FCFF601CC4B2032CEDDB681C12
:10413000C5B2072DC4DDAAA0FEF7F1FF002410E0F0
:10414000A94951F82400FFF7D0F8022C03DAA0A007
:10415000FEF7E5FF03E0AFF22840FEF7E0FF601C4A
:10416000C4B2032CECDBA1A0FEF7D9FF9E49343981
:10417000086CFFF7BAF8AFF24840FEF7D0FFFFF740
:1041800076FF00BFA4E710B5AFF2D840FEF7C7FF37
:1041900095483438007809281AD2DFE800F005097C
:1041A0000D1119191919150092A0FEF7B8FF1AE0A0
:1041B00091A0FEF7B4FF16E090A0FEF7B0FF12E06A
:1041C0008FA0FEF7ACFF0EE08EA0FEF7A8FF0AE07E
:1041D0008DA0FEF7A4FF844934390978891EC8B23E
:1041E000FEF7CCFF00BF00BF89A0FEF798FF7E4915
:1041F000343989793631C8B2FEF7C0FF7A4834388D
:10420000007920B1012806D002280CD107E081A056
:10421000FEF785FF07E081A0FEF781FF03E081A0A4
:10422000FEF77DFF00BF00BF6F483438807818B9B3
:104230007EA0FEF774FF02E07EA0FEF770FF6A48E2
:104240003438C07818B97DA0FEF769FF02E07DA080
:10425000FEF765FF644834384078012803D17BA01D
:10426000FEF75DFF02E07BA0FEF759FF5E483438A1
:10427000C07920B1012806D002280CD107E077A030
:10428000FEF74DFF07E076A0FEF749FF03E075A0BB
:10429000FEF745FF00BF00BF53483438407A60B195
:1042A000012802D002280CD103E06FA0FEF737FFEF
:1042B00007E06EA0FEF733FF03E06DA0FEF72FFFCF
:1042C00000BF00BF48483438007A10B1022803D13B
:1042D000D2E068A0FEF723FFD2E000003405002002
:1042E000290D0A2432343D002028686F6D696E67FD
:1042F00020666565642C206D6D2F6D696E290D0A31
:104300002432353D000000002028686F6D696E671B
:10431000207365656B2C206D6D2F6D696E290D0AFC
:104320002432363D000000002028686F6D696E67FA
:10433000206465626F756E63652C206D73656329FB
:104340000D0A2432373D00002028686F6D696E67C2
:104350002070756C6C2D6F66662C206D6D290D0AB2
:10436000000000002400000000006145202800003B
:1043700078000000790000007A0000002C2073749F
:1043800065702F6D6D000000206D61782072617482
:10439000652C206D6D2F6D696E00000020616363D8
:1043A000656C2C206D6D2F7365635E32000000001C
:1043B000206D61782074726176656C2C206D6D00C3
:1043C000290D0A005B5052423A0000005C000020B8
:1043D0002C0000005B470000323800003330000042
:1043E0005B4739323A000000A00000205B544C4F7C
:1043F0003A0000004730000047310000473200001B
:1044000047330000473830004733382E00000000A3
:104410002047000020473137000000002047313896
:1044200000000000204731390000000020473231F1
:1044300000000000204732300000000020473930E3
:1044400000000000204739310000000020473933C8
:10445000000000002047393400000000204D3000EB
:10446000204D3100204D3200204D3300204D3400CE
:10447000204D3500204D39008AA0FEF750FE00BFC8
:1044800000BF89A0FEF74BFE8849087DFEF776FE47
:1044900087A0FEF744FE85490869FEF745FF85A021
:1044A000FEF73DFE8149C868FEF73EFFAFF280701F
:1044B000FEF735FE10BD70B505460C467EA0FEF732
:1044C0002EFE2846FEF75AFEAFF23470FEF727FEA6
:1044D0002046FEF719FEAFF67400FEF720FE70BD11
:1044E00010B5044675A0FEF71AFE2046FEF70CFE36
:1044F000AFF2C470FEF713FE10BD10B5044673A0F2
:10450000FEF70DFE2046FEF7FFFDAFF2DC70FEF772
:1045100006FE10BD30B587B06E4A121D07CA04AB47
:1045200007C36C484078082814D007DC68B101281C
:104530001CD002281ED0042824D113E010280DD04E
:1045400020281BD040281DD103E063A0FEF7E7FD23
:1045500018E000BF62A0FEF7E2FD13E062A0FEF7E4
:10456000DEFD0FE062A0FEF7DAFD0BE062A0FEF7D1
:10457000D6FD07E062A0FEF7D2FD03E062A0FEF7E1
:10458000CEFD00BF00BF624890F8340010F0030F6A
:1045900003D004A901A801F01BFF5D4890F8340086
:1045A00010F0010F13D05BA0FEF7B9FD00240CE062
:1045B00001A951F82400FEF798FE022C03DAAFF2AD
:1045C000F010FEF7ACFD601CC4B2032CF0DB5048C9
:1045D00090F8340010F0020F32D050A0FEF79FFD8B
:1045E00000242BE0314A343252F824100C3A52F8AD
:1045F000240005F0BBFF054601A850F8241028460A
:1046000006F0B1FA01A941F82400022C09D1274A89
:10461000116C01AA52F8240006F0B0FA01A941F881
:10462000240001A951F82400FEF75FFE022C03DAF2
:10463000AFF26420FEF773FD601CC4B2032CD1DB23
:10464000334890F8340010F0040F07D035A0FEF77F
:1046500066FDFEF728FD0546FEF790FD2C4890F814
:10466000340010F0080F07D030A0FEF758FD00F01E
:1046700067F80546FEF782FD254890F8340010F0F3
:10468000100F09D02BA0FEF74AFDFDF76EF9054685
:1046900003220221FEF749FD28A0FEF740FD07B0E6
:1046A00030BD0000204D3800205400006C00002078
:1046B0002046000020530000244E00005B302E39BD
:1046C0006A2E32303136303732363A005B656368F5
:1046D0006F3A20004C0000203C49646C65000000EB
:1046E0003C52756E000000003C486F6C6400000096
:1046F0003C486F6D650000003C416C61726D0000CC
:104700003C436865636B00003C446F6F72000000BF
:10471000340500202C4D506F733A00002C57506F19
:10472000733A00002C4275663A0000002C52583A49
:10473000000000002C4C696D3A0000003E0D0A009C
:104740007448017874480078884204DB7248007825
:10475000401AC0B2704770480078081AC0F1800053
:10476000C0B2F7E76D4801786D480078884204DBF5
:104770006B480078401AC0B2704769480078081A40
:10478000C0F14000C0B2F7E710B54FF4E13004F0DB
:10479000B3F810BD70B5054661480078401CC4B23E
:1047A000402C00D1002405E05E48007810F0100F86
:1047B00000D070BD594800788442F5D05A48584915
:1047C0000978455456480470012240F22771574831
:1047D00003F051FC00BFECE74E4801784E480078EA
:1047E000884201D1FF207047514A505C4A1CD1B227
:1047F000802900D10021474A117000BFF3E770B54E
:1048000040F22551494803F005FD00285AD0474899
:1048100003F096FCC6B23F2E0AD004DC182E3BD023
:10482000212E3CD11EE0402E29D07E2E37D10CE027
:10483000012000F06BF83B48007840F00100394956
:104840000870002000F062F83BE0012000F05EF804
:104850003448007840F0020032490870002000F02F
:1048600055F82EE0012000F051F82E48007840F075
:1048700008002C490870002000F048F821E00120D1
:1048800000F044F82748007840F0200025490870DF
:10489000002000F03BF814E0FDF736FE11E01E4862
:1048A0000078401CC5B2802D00D100251948007841
:1048B000854205D01E4818490978465416480570A7
:1048C00000BF00BF40F22771184803F0B9FCB8B12F
:1048D000124804781448015D144803F02DFC601C54
:1048E000C4B2402C00D100240C4804700C4800785D
:1048F000844205D1002240F227710C4803F0BBFB33
:1049000070BD0548007803490870704780F310882F
:10491000704700001A000020190000201C00002031
:104920001B00002031000020F4040020003801406A
:104930007404002070B504460D4604EB041000EB2F
:10494000841000F54076502229463046FBF7AAFD38
:1049500070BD10B504465022214640F2AE30FBF740
:10496000A1FD10BD70B504460D4604EB840000EBBC
:10497000C40000F500760C2229463046FBF792FD74
:1049800070BD10B509210020FBF77EFD5422F749C8
:104990000120FBF787FD10BD3EB5044614F0010F62
:1049A0003CD00A20F14981F83000192081F8330009
:1049B000002081F8310081F83200032081F83400B2
:1049C000EB488863EB48C863002081F84100EA485F
:1049D0004864EA488864FA20A1F84C004FF07E5001
:1049E0000865002081F84000E5480860486088605C
:1049F000E248C8600146DD4801614161E148DB49A8
:104A000088610146D948C1610162DF48D7494862DF
:104A10000146D6488162C162FFF7B3FF14F0020F6E
:104A20000ED00020009001900290002505E069461C
:104A30002846FFF797FF681CC5B2072DF7DD00BFBA
:104A400014F0040F09D000214FF44070FBF71CFD57
:104A5000002140F25130FBF717FD14F0080F04D08D
:104A6000002140F2AE30FBF70FFD3EBD70B50546AC
:104A70000C4605EB051000EB851000F54076502242
:104A800031462046FBF72FFD38B900202070214623
:104A90002846FFF74FFF002070BD0120FCE710B54E
:104AA0000446502240F2AE312046FBF71CFD30B9DF
:104AB000002020702046FFF74CFF002010BD012091
:104AC000FCE770B505460C4605EB850000EBC5001C
:104AD00000F500760C2231462046FBF704FD48B96C
:104AE000002020606060A06021462846FFF73AFF62
:104AF000002070BD0120FCE710B50020FBF7B6FCDC
:104B00000446092C07D1542201219848FBF7EBFCFD
:104B100018B9002010BD0020FCE70120FAE72DE9BC
:104B2000F04705460E464FF00009304605F0F2FC0E
:104B300007460022134605F0A1F902D20420BDE881
:104B4000F087642D43DBA5F16400C5B23BE0032D83
:104B50002BDAB9F1000F09D0B9F1010F0AD0B9F180
:104B6000020F0CD0B9F1030F1DD115E07F4840F8BA
:104B7000256018E07D480C3040F8256013E083493B
:104B8000304605F0F3FE0746804905F0EFFE774911
:104B9000183141F8250006E086F0004173482430C2
:104BA00040F8251000BF00BF10E009F1010000F03F
:104BB000FF090A2D02DBB9F1040F01D10320BEE782
:104BC000A5F10A00C5B2B9F1040FC0DBF4E030462C
:104BD00005F04CFEC4B21C2D74D2DFE805F00E16B1
:104BE0001A2026394CEAEAEA5F636669EAEAEAEAE9
:104BF000EAEA7D98ADD9DDE0E3E7032C01DA06208F
:104C00009DE75A4880F83040D5E0584880F8334056
:104C1000D1E0564880F8314000F092FBCBE0534899
:104C200080F8324000F08CFBC5E044B14F4890F86A
:104C3000400040F004004D4981F8400007E04B4837
:104C400090F8400020F00400484981F84000B2E0AC
:104C500044B1464890F8400040F04000434981F894
:104C6000400007E0414890F8400020F040003F49F4
:104C700081F840009FE044B13C4890F8400040F08B
:104C800080003A4981F8400007E0384890F8400039
:104C900020F08000354981F840008CE0334880F8EE
:104CA000344088E03148866385E03048C66382E05E
:104CB0004CB12E4890F8400040F001002B4981F89B
:104CC000400008E075E0294890F8400020F001001D
:104CD000264981F840006EE084B1244890F84000F5
:104CE00010F0100F01D10A2029E7204890F8400069
:104CF00040F020001D4981F8400007E01B4890F873
:104D0000400020F02000194981F8400053E044B1F0
:104D1000164890F8400040F00800144981F840001F
:104D200007E0124890F8400020F008000F4981F891
:104D30004000FCF7D4FD3EE044B10C4890F8400040
:104D400040F01000094981F840000EE0074890F853
:104D5000400020F01000054981F84000084690F816
:104D6000400020F0200081F8400024E034050020BD
:104D70000AD7233C6F12033B0000C8410000FA43EE
:104D800000007A4300A00C47000048C300007042B6
:104D9000214880F841400EE01F4846640BE01E4861
:104DA000866408E01C48A0F84C4004E01A480665F8
:104DB00001E00320C3E600BFFFF7E3FD0020BEE6ED
:104DC00010B5FFF799FE38B90720FEF74BFDFF201D
:104DD000FFF7E2FDFEF70AFE10BD014609B9042007
:104DE0007047012901D10820FAE71020F8E70146B1
:104DF00009B920207047012901D14020FAE780201D
:104E0000F8E7014609B902207047012901D10420C1
:104E1000FAE70820F8E700003405002010B54FF04D
:104E2000804003F09CFC002202214B4803F034FC3C
:104E300010BD1CB549484FF0804101231A46CDE909
:104E400000104549042003F03EFC022242490420A0
:104E500003F0F8FB04224049104603F0F3FBFFF790
:104E6000DDFF1CBD2DE9FF4704460D4614B9FFF7D1
:104E7000D5FF5EE0012C05D100220421364803F065
:104E80000BFC04E001220421334803F005FC284612
:104E900005F040FB06460022134604F0EFFF02D85F
:104EA000FFF7BCFF45E0284605F034FB064600222C
:104EB000134604F0E3FF01D2002515E0284605F073
:104EC00029FB81460022134605F03AFA064604F013
:104ED000CBFC0546284605F01DFB06460022204B6C
:104EE00005F006F900D21F4D284605F013FB1E4AB7
:104EF0001E4BCDE9000104F0FDFF064600221C4BCD
:104F000004F0E4FC814604F0C1FBCDE9020104F0A9
:104F10005DFF1FFA80F841464FF0804003F017FC18
:104F20004FF0804003F022FC012202210A4803F0E6
:104F3000B3FBBDE8FF8770B504460D460D484078C9
:104F4000022800D170BDFEF773FC29462046FFF70A
:104F500089FF00BFF6E700000008014000FF7F471F
:104F600000408F4000007A440AD7A3703D62504051
:104F70000000E03F4C00002010B5FE4890F84000D3
:104F800010F0040F05D00122D102FB4803F084FB8E
:104F900005E000224FF40061F74803F07DFBF7487D
:104FA000407810F00C0F0DD0F5480078F549C87323
:104FB000F54800788873EF4890F83000801E4873F9
:104FC00003F056FC10BD10B503F058FC0020EF496B
:104FD00008700024E74890F83300FF2802D1EC481D
:104FE000007848B1E5484078042805D0E14991F8B7
:104FF000330001F0B1FB0124DE4890F8400010F0CE
:10500000040F01D084F001042CB10122D102DA484E
:1050100003F042FB05E000224FF40061D64803F0A4
:105020003BFB10BD10B50121DA4802F034FF002827
:105030007ED00121D74802F03FFFD448007800B16C
:1050400010BDD048C07BC0F340124FF48071CA48F5
:1050500003F022FBCB48C07BC0F380124FF40071F9
:10506000C54803F019FBC748C07BC2094FF48061F3
:10507000C14803F011FBC348807BC0F380022021AC
:10508000BD4803F009FBBF48807BC0F3C00240214C
:10509000B94803F001FBBB48807BC0F300128021BC
:1050A000B54803F0F9FAB748417B082003F005FC46
:1050B00003F0F7FB0120B5490870002080F3108849
:1050C00000BFB048406A002867D1B3480078B349B0
:1050D0000978884250D0B248B049097800EBC10045
:1050E000A84948620846406A80884110082003F0B9
:1050F000CBFBA448406A0088A24988830846807F89
:10510000496A8978884216D09E48406A80789D49CD
:1051100088770846807F00EB8000A24901EB800081
:10512000984908620846006A00694008886000E003
:10513000DFE0486008609348006A00789049097889
:1051400048409049C8730846006A4068496A8979AE
:10515000C8408C4908610846006A8068496A8979B4
:10516000C840884948610846006AC068496A897928
:10517000C8408449886110E0FFF725FF012080F3D3
:10518000108800BF8848007840F004008649087005
:10519000002080F3108800BF52E7FEF722F90020BC
:1051A00078498873084600680969084475490860A9
:1051B00008460068096A096988421DD97148807BE0
:1051C00040F004006F49887308460068096A09695D
:1051D000401A6C4908600846006A007810F0200FF9
:1051E00005D066484068401E6449486004E0634852
:1051F0004068401C61494860624841684069084411
:105200006049486008464068096A096988421DD9B2
:105210005C48807B40F008005A4988730846406823
:10522000096A0969401A574948600846006A0078C7
:1052300010F0400F05D051488068401E4F498860EB
:1052400004E04E488068401C4C4988604D488168A5
:10525000806908444B49886008468068096A096982
:1052600088421DD94748807B40F01000454988732B
:1052700008468068096A0969401A424988600846F8
:10528000006A007810F0800F05D03C48C068401ECE
:105290003A49C86004E03948C068401C3749C860D2
:1052A00036484078042806D13648807B3349497F08
:1052B0000840344988733348808B401E31498883C5
:1052C0000846808B58B90020486234480078401C5A
:1052D000C0B232490870062801D100200870294860
:1052E000807B29490978484026498873002027494E
:1052F000087000BFA4E610B501212C4802F0CBFDD8
:10530000E8B10121294802F0D7FD1F480078C0F319
:1053100080022021184803F0BFF91B480078C0F331
:10532000C0024021144803F0B7F917480078C0F3D1
:1053300000128021104803F0AFF903F0B8FA10BD55
:1053400010B50020104908700D49087000243FE096
:10535000084890F831000121A140084207D02046BA
:10536000FFF73BFD084909780843074908700148E1
:105370001EE0000034050020000C01404C0000201D
:10538000240000201C06002023000020250000200F
:1053900032000020000400402100002020000020F6
:1053A000EC050020880500203100002000080040A6
:1053B00090F832100120A040014207D02046FFF7AC
:1053C00016FDFE4909780843FC490870601CC4B208
:1053D000032CBDDB10BD10B5FFF7F5FD3021F848FB
:1053E00003F022FB2821F74803F01EFB0020F549BB
:1053F0004862F5490860F5490870F54908700120D0
:10540000F44908700020F4490870FFF799FFF34849
:105410000078C0F380022021F14803F03DF9EF4805
:105420000078C0F3C0024021ED4803F035F9EB48A5
:105430000078C0F300128021E94803F02DF9DF481D
:105440000078C0F340124FF48071E54803F024F96E
:10545000DA480078C0F380124FF40071E04803F09E
:105460001BF9D6480078C2094FF48061DC4803F08C
:1054700013F910BD10B52022D949082003F0E2F835
:105480004022D749082003F0DDF88022D4490820C3
:1054900003F0D8F84FF48072D149082003F0D2F815
:1054A0004FF40072CE49082003F0CCF84FF480622C
:1054B000CB49082003F0C6F84FF40062C849082021
:1054C00003F0C0F803F05AF910BD10B5BE480068EB
:1054D00068B10120BA4948700A46D169D06905F01F
:1054E00045FAB949096848610020B749086010BD0C
:1054F00000B5A1B0BB48407810F0700F0DD0B04897
:10550000C0690D9005F006F800221346CDE90E01A2
:1055100004F0F0FB01D121B000BDFDE3AA48006812
:1055200000287DD1FDF7F1F9A74908600846006819
:1055300000B9F0E7A248407818B10020A0494870AF
:1055400083E09F480078401CC0B29D490870052840
:1055500001D1002008709A48007800EB8000A24931
:1055600001EB8000A149086097480068007809684D
:105570000870954800684068C0009C490968486008
:10558000914800688068C1009848006881608E4832
:105590000068C068C10095480068C1608A4800681A
:1055A0000069C0009149096808618748006800697E
:1055B0000F9005F093F98249486083480068806A3B
:1055C0000F90084640680E900F9905F03DF87C4911
:1055D0008860084680680B9004F09CFF02460B46EA
:1055E000CDE90C010020824904F02CFACDE90E012E
:1055F00004F03AF97249C86000200861794840789F
:1056000010F0700F11D00846406AC8610846406A21
:105610000F900846406A0E900F9905F0A7F900E038
:1056200076E16949096848610FE0674800684069A8
:105630000B9004F06FFFCDE90C0104F0EDF8CDE91B
:105640000E0104F011F95E49C86100205C498861CF
:105650005D480068406A0B9004F05CFF02460B4610
:10566000CDE90C010020634904F0ECF9CDE90E010D
:1056700004F0FAF820905B48407810F0700F4ED09C
:1056800002204F49087550480068406901460E9055
:10569000209805F06BF90F904B480068806A01462E
:1056A0000E900F9805F05FFA1F901F9804F032FFDC
:1056B00000221346CDE90E0104F0E0FB28D2424857
:1056C0000068406A014608904FF0804005F04EF9AE
:1056D00009903D480068806A01460890099805F0E5
:1056E00045F90A90384800684069014609900A98CF
:1056F00005F039FA0B9004F00DFFCDE90C0104F030
:105700008BF8CDE90E0104F0AFF82D494862FFE0B7
:105710002B491F988861002129484162F8E0002048
:105720002749087528480068806A8862FDF7FFF8F5
:10573000234948620846406A0F900846406A0E9026
:105740000F9905F013F91E901F48006840690890F2
:105750001E9905F013FA0990209905F007F90A90AF
:1057600019480068806A014609900A9804F0FEFE14
:105770000B9004F0CFFE00221E4BCDE90C0104F08B
:10578000B9FBCDE90E0104F06FF81D901D9804F0EF
:10579000C1FE00221346CDE90E0104F0A9FC75D22A
:1057A00009480068806A01460F901D9805F0AAF824
:1057B0006DD205480068006A0E901DE024000020AC
:1057C000440600201C0600202800002020000020A5
:1057D00021000020220000202500002023000020BE
:1057E000000C01404C000020880500202C00002007
:1057F0000000F43F0000E03F1E9905F0BFF90F9054
:10580000209905F0B3F8FE49C8620846C06A0F90B7
:105810001D9905F077F83BD2FA480068006A0B90B2
:1058200004F078FECDE90C0103F0F6FFCDE90E019E
:1058300004F01AF8F2490862F2480068006A0F9012
:10584000F048006840690E900F9904F0BFFF03D143
:105850000120EB4908755BE0EA48006840690D905B
:10586000E8480068006A0C900D9905F087F90E90E1
:10587000209905F07BF80F90E148806A01460E9070
:105880000F9805F070F9DE49886241E03AE032E0B5
:10589000DB491D9888621D98C8621E9804F03AFE84
:1058A000CDE90A011D9804F035FECDE90601D54881
:1058B0000068406A019004F02DFE00224FF0804302
:1058C000CDE9020104F016FBCDE90401DDE9062370
:1058D00004F010FBCDE90801DDE90A2303F0F6FF2F
:1058E000CDE90C0103F098FFCDE90E0103F0BCFFF8
:1058F000C34908620CE00220C14908750846C06926
:10590000086205E00020BE4988620846406A0862D5
:10591000BD48BE49097800EBC1001C90B848017829
:105920001C988170BA481B901B98199000201A90FF
:10593000B4480068806A1690B148C06801460F906C
:10594000169805F01BF91590159804F0E3FD002258
:105950001346CDE90E0104F091FA01D20020159012
:1059600000BFA748007D10B101287AD18BE0A5487F
:105970000068406A0F90199904F0F8FF1790179883
:1059800004F0C8FD0022A34BCDE9000104F0B2FAF7
:10599000CDE904019A48C069019004F0BBFDCDE94E
:1059A0000201DDE9042303F091FFCDE90801199814
:1059B00004F0B0FDCDE90601DDE9082304F09AFA10
:1059C000CDE90C01169804F0A5FDCDE90A01DDE949
:1059D0000C2304F0B5FCCDE90E0103F045FF169051
:1059E0008748806A01460F90169804F08BFF41D2D9
:1059F0008348806A16908248006A08908048C0698F
:105A00000790089904F0B2FD099004F083FDCDE9F8
:105A10000C017C480068806A0690169905F0AEF883
:105A2000079004F077FD00224FF08043CDE9080194
:105A300004F060FACDE90A01DDE90C2304F002F874
:105A4000CDE90E0103F010FF19906D48C06A0146C0
:105A50000F90169804F0BAFE04D102206849087528
:105A600003E03DE00120664908756548006A644925
:105A7000C86107E06248C0690F90179904F076FD8D
:105A80005F49C861ADE05E48006A0E90199904F064
:105A90006DFF0F90169905F066F818905848C06A87
:105AA00001460F90189804F02DFF16D25448C06A92
:105AB00001460E90169805F061F80F905048006A64
:105AC00001460E900F9804F0BFFD19904C48C06A33
:105AD000169002204A49087501E01898169080E057
